{
    "contractName": "BSHAREBUSDVault",
    "abi": [
        {
            "anonymous": false,
            "inputs": [
                {
                    "indexed": false,
                    "internalType": "uint256",
                    "name": "busdCollected",
                    "type": "uint256"
                },
                {
                    "indexed": false,
                    "internalType": "uint256",
                    "name": "blocknumber",
                    "type": "uint256"
                },
                {
                    "indexed": false,
                    "internalType": "uint256",
                    "name": "blockTimestamp",
                    "type": "uint256"
                }
            ],
            "name": "BUSDcollected",
            "type": "event"
        },
        {
            "anonymous": false,
            "inputs": [
                {
                    "indexed": false,
                    "internalType": "string",
                    "name": "contractName",
                    "type": "string"
                },
                {
                    "indexed": false,
                    "internalType": "address",
                    "name": "user",
                    "type": "address"
                },
                {
                    "indexed": false,
                    "internalType": "uint256",
                    "name": "amount",
                    "type": "uint256"
                },
                {
                    "indexed": false,
                    "internalType": "uint256",
                    "name": "totalAmount",
                    "type": "uint256"
                },
                {
                    "indexed": false,
                    "internalType": "uint256",
                    "name": "blocknumber",
                    "type": "uint256"
                },
                {
                    "indexed": false,
                    "internalType": "uint256",
                    "name": "blockTimestamp",
                    "type": "uint256"
                },
                {
                    "indexed": false,
                    "internalType": "uint256",
                    "name": "tokenID",
                    "type": "uint256"
                }
            ],
            "name": "BiddingNFT",
            "type": "event"
        },
        {
            "anonymous": false,
            "inputs": [
                {
                    "indexed": false,
                    "internalType": "string",
                    "name": "contractName",
                    "type": "string"
                },
                {
                    "indexed": false,
                    "internalType": "uint256",
                    "name": "counter",
                    "type": "uint256"
                },
                {
                    "indexed": false,
                    "internalType": "uint256",
                    "name": "lockPeriod",
                    "type": "uint256"
                },
                {
                    "indexed": false,
                    "internalType": "uint256",
                    "name": "blocknumber",
                    "type": "uint256"
                },
                {
                    "indexed": false,
                    "internalType": "uint256",
                    "name": "blockTimestamp",
                    "type": "uint256"
                }
            ],
            "name": "Buy",
            "type": "event"
        },
        {
            "anonymous": false,
            "inputs": [
                {
                    "indexed": false,
                    "internalType": "address",
                    "name": "vault",
                    "type": "address"
                },
                {
                    "indexed": false,
                    "internalType": "uint256",
                    "name": "value",
                    "type": "uint256"
                },
                {
                    "indexed": false,
                    "internalType": "uint256",
                    "name": "blocknumber",
                    "type": "uint256"
                },
                {
                    "indexed": false,
                    "internalType": "uint256",
                    "name": "blockTimestamp",
                    "type": "uint256"
                }
            ],
            "name": "CalculateAPR",
            "type": "event"
        },
        {
            "anonymous": false,
            "inputs": [
                {
                    "indexed": false,
                    "internalType": "string",
                    "name": "contractName",
                    "type": "string"
                },
                {
                    "indexed": false,
                    "internalType": "address",
                    "name": "user",
                    "type": "address"
                },
                {
                    "indexed": false,
                    "internalType": "uint256",
                    "name": "wonAddress",
                    "type": "uint256"
                },
                {
                    "indexed": false,
                    "internalType": "uint256",
                    "name": "totalAmount",
                    "type": "uint256"
                },
                {
                    "indexed": false,
                    "internalType": "uint256",
                    "name": "blocknumber",
                    "type": "uint256"
                },
                {
                    "indexed": false,
                    "internalType": "uint256",
                    "name": "blockTimestamp",
                    "type": "uint256"
                }
            ],
            "name": "ClaimBID",
            "type": "event"
        },
        {
            "anonymous": false,
            "inputs": [
                {
                    "indexed": false,
                    "internalType": "address",
                    "name": "vault",
                    "type": "address"
                },
                {
                    "indexed": false,
                    "internalType": "uint256",
                    "name": "amount",
                    "type": "uint256"
                },
                {
                    "indexed": false,
                    "internalType": "uint256",
                    "name": "blocknumber",
                    "type": "uint256"
                },
                {
                    "indexed": false,
                    "internalType": "uint256",
                    "name": "blockTimestamp",
                    "type": "uint256"
                }
            ],
            "name": "ControllerFee",
            "type": "event"
        },
        {
            "anonymous": false,
            "inputs": [
                {
                    "indexed": false,
                    "internalType": "string",
                    "name": "Vault",
                    "type": "string"
                },
                {
                    "indexed": false,
                    "internalType": "address",
                    "name": "receiver",
                    "type": "address"
                },
                {
                    "indexed": false,
                    "internalType": "address",
                    "name": "user",
                    "type": "address"
                },
                {
                    "indexed": false,
                    "internalType": "uint256",
                    "name": "amount",
                    "type": "uint256"
                },
                {
                    "indexed": false,
                    "internalType": "uint256",
                    "name": "blocknumber",
                    "type": "uint256"
                },
                {
                    "indexed": false,
                    "internalType": "uint256",
                    "name": "blockTimestamp",
                    "type": "uint256"
                }
            ],
            "name": "Deposit",
            "type": "event"
        },
        {
            "anonymous": false,
            "inputs": [
                {
                    "indexed": false,
                    "internalType": "string",
                    "name": "contractName",
                    "type": "string"
                },
                {
                    "indexed": false,
                    "internalType": "bool",
                    "name": "rank",
                    "type": "bool"
                },
                {
                    "indexed": false,
                    "internalType": "address",
                    "name": "TopofAuction",
                    "type": "address"
                },
                {
                    "indexed": false,
                    "internalType": "uint256",
                    "name": "tokenId",
                    "type": "uint256"
                },
                {
                    "indexed": false,
                    "internalType": "uint256",
                    "name": "blocknumber",
                    "type": "uint256"
                },
                {
                    "indexed": false,
                    "internalType": "uint256",
                    "name": "blockTimestamp",
                    "type": "uint256"
                }
            ],
            "name": "EndAuction",
            "type": "event"
        },
        {
            "anonymous": false,
            "inputs": [
                {
                    "indexed": false,
                    "internalType": "string",
                    "name": "Vault",
                    "type": "string"
                },
                {
                    "indexed": false,
                    "internalType": "address",
                    "name": "user",
                    "type": "address"
                },
                {
                    "indexed": false,
                    "internalType": "uint256",
                    "name": "amount",
                    "type": "uint256"
                },
                {
                    "indexed": false,
                    "internalType": "uint256",
                    "name": "blocknumber",
                    "type": "uint256"
                },
                {
                    "indexed": false,
                    "internalType": "uint256",
                    "name": "blockTimestamp",
                    "type": "uint256"
                }
            ],
            "name": "LottoDeposit",
            "type": "event"
        },
        {
            "anonymous": false,
            "inputs": [
                {
                    "indexed": false,
                    "internalType": "address",
                    "name": "token",
                    "type": "address"
                },
                {
                    "indexed": false,
                    "internalType": "bool",
                    "name": "isLptoken",
                    "type": "bool"
                },
                {
                    "indexed": false,
                    "internalType": "bool",
                    "name": "isAuto",
                    "type": "bool"
                },
                {
                    "indexed": false,
                    "internalType": "address",
                    "name": "smartchef",
                    "type": "address"
                },
                {
                    "indexed": false,
                    "internalType": "address",
                    "name": "strat",
                    "type": "address"
                },
                {
                    "indexed": false,
                    "internalType": "address",
                    "name": "instance",
                    "type": "address"
                },
                {
                    "indexed": false,
                    "internalType": "uint256",
                    "name": "blocknumber",
                    "type": "uint256"
                },
                {
                    "indexed": false,
                    "internalType": "uint256",
                    "name": "blockTimestamp",
                    "type": "uint256"
                }
            ],
            "name": "OptAdd",
            "type": "event"
        },
        {
            "anonymous": false,
            "inputs": [
                {
                    "indexed": false,
                    "internalType": "address",
                    "name": "token",
                    "type": "address"
                },
                {
                    "indexed": false,
                    "internalType": "address",
                    "name": "vault",
                    "type": "address"
                },
                {
                    "indexed": false,
                    "internalType": "uint256",
                    "name": "blocknumber",
                    "type": "uint256"
                },
                {
                    "indexed": false,
                    "internalType": "uint256",
                    "name": "blockTimestamp",
                    "type": "uint256"
                }
            ],
            "name": "OptAddCustomVaults",
            "type": "event"
        },
        {
            "anonymous": false,
            "inputs": [
                {
                    "indexed": false,
                    "internalType": "string",
                    "name": "Vault",
                    "type": "string"
                },
                {
                    "indexed": false,
                    "internalType": "address",
                    "name": "receiver",
                    "type": "address"
                },
                {
                    "indexed": false,
                    "internalType": "address",
                    "name": "user",
                    "type": "address"
                },
                {
                    "indexed": false,
                    "internalType": "uint256",
                    "name": "amount",
                    "type": "uint256"
                },
                {
                    "indexed": false,
                    "internalType": "uint32",
                    "name": "level",
                    "type": "uint32"
                },
                {
                    "indexed": false,
                    "internalType": "uint256",
                    "name": "blocknumber",
                    "type": "uint256"
                },
                {
                    "indexed": false,
                    "internalType": "uint256",
                    "name": "blockTimestamp",
                    "type": "uint256"
                }
            ],
            "name": "OptDeposit",
            "type": "event"
        },
        {
            "anonymous": false,
            "inputs": [
                {
                    "indexed": false,
                    "internalType": "string",
                    "name": "contractName",
                    "type": "string"
                },
                {
                    "indexed": false,
                    "internalType": "uint256",
                    "name": "pid",
                    "type": "uint256"
                },
                {
                    "indexed": false,
                    "internalType": "uint32[]",
                    "name": "number",
                    "type": "uint32[]"
                },
                {
                    "indexed": false,
                    "internalType": "uint256",
                    "name": "blocknumber",
                    "type": "uint256"
                },
                {
                    "indexed": false,
                    "internalType": "uint256",
                    "name": "blockTimestamp",
                    "type": "uint256"
                }
            ],
            "name": "OptMultiplier",
            "type": "event"
        },
        {
            "anonymous": false,
            "inputs": [
                {
                    "indexed": false,
                    "internalType": "string",
                    "name": "contractName",
                    "type": "string"
                },
                {
                    "indexed": false,
                    "internalType": "address",
                    "name": "token",
                    "type": "address"
                },
                {
                    "indexed": false,
                    "internalType": "uint32[]",
                    "name": "multiplier",
                    "type": "uint32[]"
                },
                {
                    "indexed": false,
                    "internalType": "uint32[]",
                    "name": "deductionValue",
                    "type": "uint32[]"
                },
                {
                    "indexed": false,
                    "internalType": "uint256",
                    "name": "blocknumber",
                    "type": "uint256"
                },
                {
                    "indexed": false,
                    "internalType": "uint256",
                    "name": "blockTimestamp",
                    "type": "uint256"
                }
            ],
            "name": "OptMultiplierLevel",
            "type": "event"
        },
        {
            "anonymous": false,
            "inputs": [
                {
                    "indexed": false,
                    "internalType": "address",
                    "name": "optvault",
                    "type": "address"
                },
                {
                    "indexed": false,
                    "internalType": "address",
                    "name": "user",
                    "type": "address"
                },
                {
                    "indexed": false,
                    "internalType": "uint256",
                    "name": "reward",
                    "type": "uint256"
                },
                {
                    "indexed": false,
                    "internalType": "uint256",
                    "name": "blocknumber",
                    "type": "uint256"
                },
                {
                    "indexed": false,
                    "internalType": "uint256",
                    "name": "blockTimestamp",
                    "type": "uint256"
                }
            ],
            "name": "OptimizationRewards",
            "type": "event"
        },
        {
            "anonymous": false,
            "inputs": [
                {
                    "indexed": false,
                    "internalType": "string",
                    "name": "Vault",
                    "type": "string"
                },
                {
                    "indexed": false,
                    "internalType": "address",
                    "name": "receiver",
                    "type": "address"
                },
                {
                    "indexed": false,
                    "internalType": "address",
                    "name": "user",
                    "type": "address"
                },
                {
                    "indexed": false,
                    "internalType": "uint256",
                    "name": "amount",
                    "type": "uint256"
                },
                {
                    "indexed": false,
                    "internalType": "uint256",
                    "name": "blocknumber",
                    "type": "uint256"
                },
                {
                    "indexed": false,
                    "internalType": "uint256",
                    "name": "blockTimestamp",
                    "type": "uint256"
                }
            ],
            "name": "Optwithdraw",
            "type": "event"
        },
        {
            "anonymous": false,
            "inputs": [
                {
                    "indexed": false,
                    "internalType": "address",
                    "name": "account",
                    "type": "address"
                }
            ],
            "name": "Paused",
            "type": "event"
        },
        {
            "anonymous": false,
            "inputs": [
                {
                    "indexed": false,
                    "internalType": "string",
                    "name": "Vault",
                    "type": "string"
                },
                {
                    "indexed": false,
                    "internalType": "address",
                    "name": "user",
                    "type": "address"
                },
                {
                    "indexed": false,
                    "internalType": "uint256",
                    "name": "amount",
                    "type": "uint256"
                },
                {
                    "indexed": false,
                    "internalType": "uint256",
                    "name": "blocknumber",
                    "type": "uint256"
                },
                {
                    "indexed": false,
                    "internalType": "uint256",
                    "name": "blockTimestamp",
                    "type": "uint256"
                }
            ],
            "name": "PurchaseORSell",
            "type": "event"
        },
        {
            "anonymous": false,
            "inputs": [
                {
                    "indexed": false,
                    "internalType": "string",
                    "name": "contractName",
                    "type": "string"
                },
                {
                    "indexed": false,
                    "internalType": "address",
                    "name": "user",
                    "type": "address"
                },
                {
                    "indexed": false,
                    "internalType": "uint256",
                    "name": "userTokenID",
                    "type": "uint256"
                },
                {
                    "indexed": false,
                    "internalType": "uint256",
                    "name": "blocknumber",
                    "type": "uint256"
                },
                {
                    "indexed": false,
                    "internalType": "uint256",
                    "name": "blockTimestamp",
                    "type": "uint256"
                }
            ],
            "name": "ReactivateNFT",
            "type": "event"
        },
        {
            "anonymous": false,
            "inputs": [
                {
                    "indexed": false,
                    "internalType": "address",
                    "name": "user",
                    "type": "address"
                },
                {
                    "indexed": false,
                    "internalType": "uint256",
                    "name": "blocknumber",
                    "type": "uint256"
                },
                {
                    "indexed": false,
                    "internalType": "uint256",
                    "name": "blockTimestamp",
                    "type": "uint256"
                }
            ],
            "name": "ReferralEarned",
            "type": "event"
        },
        {
            "anonymous": false,
            "inputs": [
                {
                    "indexed": false,
                    "internalType": "string",
                    "name": "contractName",
                    "type": "string"
                },
                {
                    "indexed": false,
                    "internalType": "uint256",
                    "name": "highestbid",
                    "type": "uint256"
                },
                {
                    "indexed": false,
                    "internalType": "address",
                    "name": "winnerofTokenID",
                    "type": "address"
                },
                {
                    "indexed": false,
                    "internalType": "uint256",
                    "name": "biddingArray",
                    "type": "uint256"
                },
                {
                    "indexed": false,
                    "internalType": "uint256",
                    "name": "blocknumber",
                    "type": "uint256"
                },
                {
                    "indexed": false,
                    "internalType": "uint256",
                    "name": "blockTimestamp",
                    "type": "uint256"
                }
            ],
            "name": "ResetNewAuction",
            "type": "event"
        },
        {
            "anonymous": false,
            "inputs": [
                {
                    "indexed": false,
                    "internalType": "string",
                    "name": "contractName",
                    "type": "string"
                },
                {
                    "indexed": false,
                    "internalType": "address",
                    "name": "user",
                    "type": "address"
                },
                {
                    "indexed": false,
                    "internalType": "uint256",
                    "name": "reward",
                    "type": "uint256"
                },
                {
                    "indexed": false,
                    "internalType": "uint256",
                    "name": "TotalRewardPercentage",
                    "type": "uint256"
                },
                {
                    "indexed": false,
                    "internalType": "address",
                    "name": "UserReferrer",
                    "type": "address"
                },
                {
                    "indexed": false,
                    "internalType": "uint256",
                    "name": "Leftamount",
                    "type": "uint256"
                },
                {
                    "indexed": false,
                    "internalType": "uint256",
                    "name": "blocknumber",
                    "type": "uint256"
                },
                {
                    "indexed": false,
                    "internalType": "uint256",
                    "name": "blockTimestamp",
                    "type": "uint256"
                }
            ],
            "name": "RewardDistribute",
            "type": "event"
        },
        {
            "anonymous": false,
            "inputs": [
                {
                    "indexed": false,
                    "internalType": "string",
                    "name": "contractName",
                    "type": "string"
                },
                {
                    "indexed": false,
                    "internalType": "address",
                    "name": "user",
                    "type": "address"
                },
                {
                    "indexed": false,
                    "internalType": "uint128[3]",
                    "name": "amount",
                    "type": "uint128[3]"
                },
                {
                    "indexed": false,
                    "internalType": "uint256",
                    "name": "blocknumber",
                    "type": "uint256"
                },
                {
                    "indexed": false,
                    "internalType": "uint256",
                    "name": "blockTimestamp",
                    "type": "uint256"
                }
            ],
            "name": "RewardPercentage",
            "type": "event"
        },
        {
            "anonymous": false,
            "inputs": [
                {
                    "indexed": false,
                    "internalType": "address",
                    "name": "user",
                    "type": "address"
                },
                {
                    "indexed": false,
                    "internalType": "address",
                    "name": "beneficiary",
                    "type": "address"
                },
                {
                    "indexed": false,
                    "internalType": "uint256",
                    "name": "amount",
                    "type": "uint256"
                },
                {
                    "indexed": false,
                    "internalType": "uint256",
                    "name": "level",
                    "type": "uint256"
                },
                {
                    "indexed": false,
                    "internalType": "uint256",
                    "name": "volume",
                    "type": "uint256"
                },
                {
                    "indexed": false,
                    "internalType": "uint256",
                    "name": "blocknumber",
                    "type": "uint256"
                },
                {
                    "indexed": false,
                    "internalType": "uint256",
                    "name": "blockTimestamp",
                    "type": "uint256"
                }
            ],
            "name": "Reward_Earning",
            "type": "event"
        },
        {
            "anonymous": false,
            "inputs": [
                {
                    "indexed": false,
                    "internalType": "string",
                    "name": "contractName",
                    "type": "string"
                },
                {
                    "indexed": false,
                    "internalType": "address",
                    "name": "contractAddress",
                    "type": "address"
                },
                {
                    "indexed": false,
                    "internalType": "address",
                    "name": "previousAddress",
                    "type": "address"
                },
                {
                    "indexed": false,
                    "internalType": "address",
                    "name": "currentAddress",
                    "type": "address"
                },
                {
                    "indexed": false,
                    "internalType": "uint256",
                    "name": "blocknumber",
                    "type": "uint256"
                },
                {
                    "indexed": false,
                    "internalType": "uint256",
                    "name": "blockTimestamp",
                    "type": "uint256"
                }
            ],
            "name": "SetterForAddress",
            "type": "event"
        },
        {
            "anonymous": false,
            "inputs": [
                {
                    "indexed": false,
                    "internalType": "string",
                    "name": "contractName",
                    "type": "string"
                },
                {
                    "indexed": false,
                    "internalType": "address",
                    "name": "contractAddress",
                    "type": "address"
                },
                {
                    "indexed": false,
                    "internalType": "uint256",
                    "name": "level",
                    "type": "uint256"
                },
                {
                    "indexed": false,
                    "internalType": "uint256",
                    "name": "multiplierLevel",
                    "type": "uint256"
                },
                {
                    "indexed": false,
                    "internalType": "uint256",
                    "name": "amount",
                    "type": "uint256"
                },
                {
                    "indexed": false,
                    "internalType": "uint256",
                    "name": "blocknumber",
                    "type": "uint256"
                },
                {
                    "indexed": false,
                    "internalType": "uint256",
                    "name": "blockTimestamp",
                    "type": "uint256"
                }
            ],
            "name": "SetterForMultiplierLevel",
            "type": "event"
        },
        {
            "anonymous": false,
            "inputs": [
                {
                    "indexed": false,
                    "internalType": "string",
                    "name": "contractName",
                    "type": "string"
                },
                {
                    "indexed": false,
                    "internalType": "address",
                    "name": "contractAddress",
                    "type": "address"
                },
                {
                    "indexed": false,
                    "internalType": "uint256[3]",
                    "name": "previousArray",
                    "type": "uint256[3]"
                },
                {
                    "indexed": false,
                    "internalType": "uint256[3]",
                    "name": "currentArray",
                    "type": "uint256[3]"
                },
                {
                    "indexed": false,
                    "internalType": "uint256",
                    "name": "blocknumber",
                    "type": "uint256"
                },
                {
                    "indexed": false,
                    "internalType": "uint256",
                    "name": "blockTimestamp",
                    "type": "uint256"
                }
            ],
            "name": "SetterForOptimizationTaxFee",
            "type": "event"
        },
        {
            "anonymous": false,
            "inputs": [
                {
                    "indexed": false,
                    "internalType": "address",
                    "name": "user",
                    "type": "address"
                },
                {
                    "indexed": false,
                    "internalType": "address",
                    "name": "RefferAddress",
                    "type": "address"
                },
                {
                    "indexed": false,
                    "internalType": "uint256",
                    "name": "blocknumber",
                    "type": "uint256"
                },
                {
                    "indexed": false,
                    "internalType": "uint256",
                    "name": "blockTimestamp",
                    "type": "uint256"
                }
            ],
            "name": "SetterForReferrer",
            "type": "event"
        },
        {
            "anonymous": false,
            "inputs": [
                {
                    "indexed": false,
                    "internalType": "string",
                    "name": "contractName",
                    "type": "string"
                },
                {
                    "indexed": false,
                    "internalType": "address",
                    "name": "contractAddress",
                    "type": "address"
                },
                {
                    "indexed": false,
                    "internalType": "uint256",
                    "name": "previousValue",
                    "type": "uint256"
                },
                {
                    "indexed": false,
                    "internalType": "uint256",
                    "name": "currentValue",
                    "type": "uint256"
                },
                {
                    "indexed": false,
                    "internalType": "uint256",
                    "name": "blocknumber",
                    "type": "uint256"
                },
                {
                    "indexed": false,
                    "internalType": "uint256",
                    "name": "blockTimestamp",
                    "type": "uint256"
                }
            ],
            "name": "SetterForUint",
            "type": "event"
        },
        {
            "anonymous": false,
            "inputs": [
                {
                    "indexed": false,
                    "internalType": "string",
                    "name": "contractName",
                    "type": "string"
                },
                {
                    "indexed": false,
                    "internalType": "address",
                    "name": "contractAddress",
                    "type": "address"
                },
                {
                    "indexed": false,
                    "internalType": "uint256",
                    "name": "previousTax",
                    "type": "uint256"
                },
                {
                    "indexed": false,
                    "internalType": "uint256",
                    "name": "currentTax",
                    "type": "uint256"
                },
                {
                    "indexed": false,
                    "internalType": "uint256[]",
                    "name": "perviousAllocationTax",
                    "type": "uint256[]"
                },
                {
                    "indexed": false,
                    "internalType": "uint256[]",
                    "name": "currentAllocationTax",
                    "type": "uint256[]"
                },
                {
                    "indexed": false,
                    "internalType": "uint256",
                    "name": "blocknumber",
                    "type": "uint256"
                },
                {
                    "indexed": false,
                    "internalType": "uint256",
                    "name": "blockTimestamp",
                    "type": "uint256"
                }
            ],
            "name": "TaxAllocation",
            "type": "event"
        },
        {
            "anonymous": false,
            "inputs": [
                {
                    "indexed": false,
                    "internalType": "address",
                    "name": "account",
                    "type": "address"
                }
            ],
            "name": "Unpaused",
            "type": "event"
        },
        {
            "anonymous": false,
            "inputs": [
                {
                    "indexed": false,
                    "internalType": "string",
                    "name": "Vault",
                    "type": "string"
                },
                {
                    "indexed": false,
                    "internalType": "address",
                    "name": "receiver",
                    "type": "address"
                },
                {
                    "indexed": false,
                    "internalType": "address",
                    "name": "user",
                    "type": "address"
                },
                {
                    "indexed": false,
                    "internalType": "uint256",
                    "name": "amount",
                    "type": "uint256"
                },
                {
                    "indexed": false,
                    "internalType": "uint256",
                    "name": "blocknumber",
                    "type": "uint256"
                },
                {
                    "indexed": false,
                    "internalType": "uint256",
                    "name": "blockTimestamp",
                    "type": "uint256"
                }
            ],
            "name": "Withdraw",
            "type": "event"
        },
        {
            "inputs": [],
            "name": "Admin",
            "outputs": [
                {
                    "internalType": "contract IAdmin",
                    "name": "",
                    "type": "address"
                }
            ],
            "stateMutability": "view",
            "type": "function"
        },
        {
            "inputs": [],
            "name": "BSHAREBUSD",
            "outputs": [
                {
                    "internalType": "address",
                    "name": "",
                    "type": "address"
                }
            ],
            "stateMutability": "view",
            "type": "function"
        },
        {
            "inputs": [],
            "name": "BSHAREBUSD_A",
            "outputs": [
                {
                    "internalType": "address",
                    "name": "",
                    "type": "address"
                }
            ],
            "stateMutability": "view",
            "type": "function"
        },
        {
            "inputs": [],
            "name": "BShare",
            "outputs": [
                {
                    "internalType": "address",
                    "name": "",
                    "type": "address"
                }
            ],
            "stateMutability": "view",
            "type": "function"
        },
        {
            "inputs": [],
            "name": "BUSD",
            "outputs": [
                {
                    "internalType": "address",
                    "name": "",
                    "type": "address"
                }
            ],
            "stateMutability": "view",
            "type": "function"
        },
        {
            "inputs": [],
            "name": "DEFAULT_ADMIN_ROLE",
            "outputs": [
                {
                    "internalType": "bytes32",
                    "name": "",
                    "type": "bytes32"
                }
            ],
            "stateMutability": "view",
            "type": "function"
        },
        {
            "inputs": [],
            "name": "USDy",
            "outputs": [
                {
                    "internalType": "address",
                    "name": "",
                    "type": "address"
                }
            ],
            "stateMutability": "view",
            "type": "function"
        },
        {
            "inputs": [
                {
                    "internalType": "address",
                    "name": "",
                    "type": "address"
                }
            ],
            "name": "UserDeposit",
            "outputs": [
                {
                    "internalType": "uint256",
                    "name": "",
                    "type": "uint256"
                }
            ],
            "stateMutability": "view",
            "type": "function"
        },
        {
            "inputs": [
                {
                    "internalType": "uint256",
                    "name": "amount",
                    "type": "uint256"
                },
                {
                    "internalType": "uint256",
                    "name": "zeroOrOne",
                    "type": "uint256"
                }
            ],
            "name": "burnOrRemove",
            "outputs": [],
            "stateMutability": "nonpayable",
            "type": "function"
        },
        {
            "inputs": [
                {
                    "internalType": "address",
                    "name": "user",
                    "type": "address"
                }
            ],
            "name": "claimReward",
            "outputs": [],
            "stateMutability": "nonpayable",
            "type": "function"
        },
        {
            "inputs": [],
            "name": "completePause",
            "outputs": [
                {
                    "internalType": "bool",
                    "name": "",
                    "type": "bool"
                }
            ],
            "stateMutability": "view",
            "type": "function"
        },
        {
            "inputs": [],
            "name": "currentReward",
            "outputs": [
                {
                    "internalType": "uint256",
                    "name": "",
                    "type": "uint256"
                }
            ],
            "stateMutability": "view",
            "type": "function"
        },
        {
            "inputs": [
                {
                    "internalType": "address",
                    "name": "user",
                    "type": "address"
                },
                {
                    "internalType": "uint256",
                    "name": "amount",
                    "type": "uint256"
                },
                {
                    "internalType": "bool",
                    "name": "isBUSD",
                    "type": "bool"
                }
            ],
            "name": "deposit",
            "outputs": [],
            "stateMutability": "nonpayable",
            "type": "function"
        },
        {
            "inputs": [],
            "name": "depositTax",
            "outputs": [
                {
                    "internalType": "uint256",
                    "name": "",
                    "type": "uint256"
                }
            ],
            "stateMutability": "view",
            "type": "function"
        },
        {
            "inputs": [
                {
                    "internalType": "uint256",
                    "name": "_rebaseReward",
                    "type": "uint256"
                }
            ],
            "name": "distribute",
            "outputs": [],
            "stateMutability": "nonpayable",
            "type": "function"
        },
        {
            "inputs": [],
            "name": "emergencyWithdraw",
            "outputs": [],
            "stateMutability": "nonpayable",
            "type": "function"
        },
        {
            "inputs": [
                {
                    "internalType": "uint256",
                    "name": "",
                    "type": "uint256"
                }
            ],
            "name": "epochReward",
            "outputs": [
                {
                    "internalType": "uint256",
                    "name": "",
                    "type": "uint256"
                }
            ],
            "stateMutability": "view",
            "type": "function"
        },
        {
            "inputs": [],
            "name": "exchangeRatio",
            "outputs": [
                {
                    "internalType": "uint256",
                    "name": "",
                    "type": "uint256"
                }
            ],
            "stateMutability": "view",
            "type": "function"
        },
        {
            "inputs": [
                {
                    "internalType": "address",
                    "name": "_admin",
                    "type": "address"
                },
                {
                    "internalType": "address",
                    "name": "_lp",
                    "type": "address"
                }
            ],
            "name": "initialize",
            "outputs": [],
            "stateMutability": "nonpayable",
            "type": "function"
        },
        {
            "inputs": [],
            "name": "paused",
            "outputs": [
                {
                    "internalType": "bool",
                    "name": "",
                    "type": "bool"
                }
            ],
            "stateMutability": "view",
            "type": "function"
        },
        {
            "inputs": [],
            "name": "percentBSHARE",
            "outputs": [
                {
                    "internalType": "uint256",
                    "name": "",
                    "type": "uint256"
                }
            ],
            "stateMutability": "view",
            "type": "function"
        },
        {
            "inputs": [],
            "name": "receiptToken",
            "outputs": [
                {
                    "internalType": "address",
                    "name": "",
                    "type": "address"
                }
            ],
            "stateMutability": "view",
            "type": "function"
        },
        {
            "inputs": [
                {
                    "internalType": "address",
                    "name": "",
                    "type": "address"
                }
            ],
            "name": "restrictTransfer",
            "outputs": [
                {
                    "internalType": "uint256",
                    "name": "",
                    "type": "uint256"
                }
            ],
            "stateMutability": "view",
            "type": "function"
        },
        {
            "inputs": [
                {
                    "internalType": "address",
                    "name": "user",
                    "type": "address"
                }
            ],
            "name": "rewards",
            "outputs": [
                {
                    "internalType": "uint256",
                    "name": "reward",
                    "type": "uint256"
                }
            ],
            "stateMutability": "view",
            "type": "function"
        },
        {
            "inputs": [],
            "name": "router",
            "outputs": [
                {
                    "internalType": "address",
                    "name": "",
                    "type": "address"
                }
            ],
            "stateMutability": "view",
            "type": "function"
        },
        {
            "inputs": [
                {
                    "internalType": "address",
                    "name": "_BUSDBUSD",
                    "type": "address"
                }
            ],
            "name": "setBSHAREBUSD",
            "outputs": [],
            "stateMutability": "nonpayable",
            "type": "function"
        },
        {
            "inputs": [
                {
                    "internalType": "bool",
                    "name": "_completePause",
                    "type": "bool"
                }
            ],
            "name": "setCompletePause",
            "outputs": [],
            "stateMutability": "nonpayable",
            "type": "function"
        },
        {
            "inputs": [
                {
                    "internalType": "uint256",
                    "name": "_depositTax",
                    "type": "uint256"
                }
            ],
            "name": "setDepositTax",
            "outputs": [],
            "stateMutability": "nonpayable",
            "type": "function"
        },
        {
            "inputs": [
                {
                    "internalType": "bool",
                    "name": "_isPaused",
                    "type": "bool"
                }
            ],
            "name": "setPause",
            "outputs": [],
            "stateMutability": "nonpayable",
            "type": "function"
        },
        {
            "inputs": [
                {
                    "internalType": "address",
                    "name": "_router",
                    "type": "address"
                }
            ],
            "name": "setRouter",
            "outputs": [],
            "stateMutability": "nonpayable",
            "type": "function"
        },
        {
            "inputs": [
                {
                    "internalType": "uint256",
                    "name": "_withdrawTax",
                    "type": "uint256"
                }
            ],
            "name": "setWithdrawTax",
            "outputs": [],
            "stateMutability": "nonpayable",
            "type": "function"
        },
        {
            "inputs": [
                {
                    "internalType": "address",
                    "name": "",
                    "type": "address"
                }
            ],
            "name": "ss",
            "outputs": [
                {
                    "internalType": "uint256",
                    "name": "",
                    "type": "uint256"
                }
            ],
            "stateMutability": "view",
            "type": "function"
        },
        {
            "inputs": [],
            "name": "totalDeposit",
            "outputs": [
                {
                    "internalType": "uint256",
                    "name": "",
                    "type": "uint256"
                }
            ],
            "stateMutability": "view",
            "type": "function"
        },
        {
            "inputs": [
                {
                    "internalType": "address",
                    "name": "user",
                    "type": "address"
                },
                {
                    "internalType": "uint256",
                    "name": "_amount",
                    "type": "uint256"
                },
                {
                    "internalType": "address",
                    "name": "sendTo",
                    "type": "address"
                }
            ],
            "name": "withdraw",
            "outputs": [],
            "stateMutability": "nonpayable",
            "type": "function"
        },
        {
            "inputs": [],
            "name": "withdrawTax",
            "outputs": [
                {
                    "internalType": "uint256",
                    "name": "",
                    "type": "uint256"
                }
            ],
            "stateMutability": "view",
            "type": "function"
        }
    ],
    "bytecode": "608060405234801561001057600080fd5b50600180556002805460ff19169055615db7806200002f6000396000f3fe608060405234801561001057600080fd5b50600436106102115760003560e01c80639007bc3111610125578063d279c191116100ad578063ec78e8321161007c578063ec78e8321461047c578063f6153ccd1461048d578063f765fd8f14610496578063f887ea401461049f578063ff1b636d146104b257600080fd5b8063d279c19114610445578063db2e21bc14610458578063df9aa8ec14610460578063dfa20f0a1461047357600080fd5b80639cfa41c3116100f45780639cfa41c3146103e4578063a217fddf14610404578063a49ca5d21461040c578063bedb86fb1461041f578063c0d786551461043257600080fd5b80639007bc3114610395578063916a25ff146103a857806391c05b0b146103c8578063987d96c4146103db57600080fd5b806343e15731116101a8578063554691a511610177578063554691a5146103315780635c975abb1461034457806369328dec1461034f578063780a965214610362578063798d9ce31461038257600080fd5b806343e15731146102cd578063473b9be1146102f8578063484f4ea91461030b578063485cc9551461031e57600080fd5b80633edd1128116101e45780633edd11281461027a5780633f0781931461028d5780634006ccc5146102b157806340f290d3146102ba57600080fd5b80630700037d1461021657806307621eca1461023c57806311f94f131461024557806330da52401461025a575b600080fd5b610229610224366004615702565b6104c5565b6040519081526020015b60405180910390f35b61022960065481565b610258610253366004615702565b610cfa565b005b61022961026836600461571f565b60136020526000908152604090205481565b610258610288366004615746565b610deb565b600d546102a190600160a01b900460ff1681565b6040519015158152602001610233565b61022960055481565b6102586102c836600461571f565b612166565b6009546102e0906001600160a01b031681565b6040516001600160a01b039091168152602001610233565b610258610306366004615788565b612262565b600b546102e0906001600160a01b031681565b61025861032c3660046157aa565b6124eb565b600c546102e0906001600160a01b031681565b60025460ff166102a1565b61025861035d3660046157e3565b61290a565b610229610370366004615702565b600f6020526000908152604090205481565b61025861039036600461581a565b6129fc565b600d546102e0906001600160a01b031681565b6102296103b6366004615702565b60106020526000908152604090205481565b6102586103d636600461571f565b612ac1565b61022960075481565b6102296103f2366004615702565b60116020526000908152604090205481565b610229600081565b61025861041a36600461571f565b612c9a565b61025861042d36600461581a565b612d55565b610258610440366004615702565b612e17565b610258610453366004615702565b612efe565b6102586133b0565b600a546102e0906001600160a01b031681565b61022960045481565b6009546001600160a01b03166102e0565b610229600e5481565b61022960035481565b6008546102e0906001600160a01b031681565b6012546102e0906001600160a01b031681565b6001600160a01b038082166000908152600f602090815260408083205460125482516327f843b560e11b8152925194959194869485949290931692634ff0876a92600480820193918290030181865afa158015610526573d6000803e3d6000fd5b505050506040513d601f19601f8201168201806040525081019061054a9190615837565b90506000601260009054906101000a90046001600160a01b03166001600160a01b0316633f0a93246040518163ffffffff1660e01b8152600401602060405180830381865afa1580156105a1573d6000803e3d6000fd5b505050506040513d601f19601f820116820180604052508101906105c59190615850565b90506001600160a01b0381161580159061064b57506040516370a0823160e01b81526001600160a01b038781166004830152600191908316906370a0823190602401602060405180830381865afa158015610624573d6000803e3d6000fd5b505050506040513d601f19601f820116820180604052508101906106489190615837565b10155b15610caa5781816001600160a01b03166399bc0aea6040518163ffffffff1660e01b8152600401602060405180830381865afa15801561068f573d6000803e3d6000fd5b505050506040513d601f19601f820116820180604052508101906106b39190615837565b6106bd9190615883565b604051637a761a6b60e11b81523360048201526001600160a01b03831690630653314b90829063f4ec34d690602401602060405180830381865afa158015610709573d6000803e3d6000fd5b505050506040513d601f19601f8201168201806040525081019061072d9190615837565b6040518263ffffffff1660e01b815260040161074b91815260200190565b602060405180830381865afa158015610768573d6000803e3d6000fd5b505050506040513d601f19601f8201168201806040525081019061078c9190615837565b61079691906158a0565b421115610ba95760008283836001600160a01b03166399bc0aea6040518163ffffffff1660e01b8152600401602060405180830381865afa1580156107df573d6000803e3d6000fd5b505050506040513d601f19601f820116820180604052508101906108039190615837565b61080d9190615883565b604051637a761a6b60e11b81523360048201526001600160a01b03851690630653314b90829063f4ec34d690602401602060405180830381865afa158015610859573d6000803e3d6000fd5b505050506040513d601f19601f8201168201806040525081019061087d9190615837565b6040518263ffffffff1660e01b815260040161089b91815260200190565b602060405180830381865afa1580156108b8573d6000803e3d6000fd5b505050506040513d601f19601f820116820180604052508101906108dc9190615837565b601260009054906101000a90046001600160a01b03166001600160a01b03166306a4c9836040518163ffffffff1660e01b8152600401602060405180830381865afa15801561092f573d6000803e3d6000fd5b505050506040513d601f19601f820116820180604052508101906109539190615837565b61095d91906158b3565b61096791906158a0565b61097191906158dc565b9050600061097f82856158b3565b90508084846001600160a01b03166399bc0aea6040518163ffffffff1660e01b8152600401602060405180830381865afa1580156109c1573d6000803e3d6000fd5b505050506040513d601f19601f820116820180604052508101906109e59190615837565b6109ef9190615883565b604051637a761a6b60e11b81523360048201526001600160a01b03861690630653314b90829063f4ec34d690602401602060405180830381865afa158015610a3b573d6000803e3d6000fd5b505050506040513d601f19601f82011682018060405250810190610a5f9190615837565b6040518263ffffffff1660e01b8152600401610a7d91815260200190565b602060405180830381865afa158015610a9a573d6000803e3d6000fd5b505050506040513d601f19601f82011682018060405250810190610abe9190615837565b610ac891906158a0565b610ad291906158b3565b600081815260136020526040902054909550670de0b6b3a764000090610af99088906158b3565b6001600160a01b038a16600090815260106020526040902054610b1c9190615883565b610b2691906158f0565b9650610b336004886158f0565b610b3d90886158a0565b6000868152601360205260409020546006549198509650670de0b6b3a764000090610b699088906158b3565b6001600160a01b038a16600090815260106020526040902054610b8c9190615883565b610b9691906158f0565b610ba090886158a0565b96505050610cf1565b601260009054906101000a90046001600160a01b03166001600160a01b03166306a4c9836040518163ffffffff1660e01b8152600401602060405180830381865afa158015610bfc573d6000803e3d6000fd5b505050506040513d601f19601f82011682018060405250810190610c209190615837565b6001600160a01b0387166000908152600f6020908152604080832054848452601390925290912054919450670de0b6b3a764000091610c5f91906158b3565b6001600160a01b038816600090815260106020526040902054610c829190615883565b610c8c91906158f0565b9450610c996004866158f0565b610ca390866158a0565b9450610cf1565b670de0b6b3a764000084600654610cc191906158b3565b6001600160a01b038816600090815260106020526040902054610ce49190615883565b610cee91906158f0565b94505b50505050919050565b601254604051632474521560e21b8152600060048201523360248201526001600160a01b03909116906391d1485490604401602060405180830381865afa158015610d49573d6000803e3d6000fd5b505050506040513d601f19601f82011682018060405250810190610d6d9190615904565b610d7657600080fd5b6001600160a01b038116610dc95760405162461bcd60e51b815260206004820152601560248201527459534c2d425553443a20496e76616c69644461746160581b60448201526064015b60405180910390fd5b600a80546001600160a01b0319166001600160a01b0392909216919091179055565b600260015403610e0d5760405162461bcd60e51b8152600401610dc090615921565b6002600155600554610e2160025460ff1690565b15610e3e5760405162461bcd60e51b8152600401610dc090615958565b600d54600160a01b900460ff1615610e685760405162461bcd60e51b8152600401610dc090615982565b8384601260009054906101000a90046001600160a01b03166001600160a01b031663c95b48256040518163ffffffff1660e01b8152600401602060405180830381865afa158015610ebd573d6000803e3d6000fd5b505050506040513d601f19601f82011682018060405250810190610ee19190615850565b60405163906f634360e01b81523360048201526001600160a01b03919091169063906f634390602401602060405180830381865afa158015610f27573d6000803e3d6000fd5b505050506040513d601f19601f82011682018060405250810190610f4b9190615904565b15610f685760405162461bcd60e51b8152600401610dc0906159ad565b601260009054906101000a90046001600160a01b03166001600160a01b03166393e59dc16040518163ffffffff1660e01b8152600401602060405180830381865afa158015610fbb573d6000803e3d6000fd5b505050506040513d601f19601f82011682018060405250810190610fdf9190615850565b60405163906f634360e01b81523360048201526001600160a01b03919091169063906f634390602401602060405180830381865afa158015611025573d6000803e3d6000fd5b505050506040513d601f19601f820116820180604052508101906110499190615904565b8061105c57506001600160a01b03821633145b61106557600080fd5b333b63ffffffff161561116f57601260009054906101000a90046001600160a01b03166001600160a01b03166393e59dc16040518163ffffffff1660e01b8152600401602060405180830381865afa1580156110c5573d6000803e3d6000fd5b505050506040513d601f19601f820116820180604052508101906110e99190615850565b60405163906f634360e01b81523360048201526001600160a01b03919091169063906f634390602401602060405180830381865afa15801561112f573d6000803e3d6000fd5b505050506040513d601f19601f820116820180604052508101906111539190615904565b61116f5760405162461bcd60e51b8152600401610dc0906159e4565b601260009054906101000a90046001600160a01b03166001600160a01b03166393e59dc16040518163ffffffff1660e01b8152600401602060405180830381865afa1580156111c2573d6000803e3d6000fd5b505050506040513d601f19601f820116820180604052508101906111e69190615850565b60405163906f634360e01b81526001600160a01b038481166004830152919091169063906f634390602401602060405180830381865afa15801561122e573d6000803e3d6000fd5b505050506040513d601f19601f820116820180604052508101906112529190615904565b61128e576001600160a01b03821660009081526011602052604090205443900361128e5760405162461bcd60e51b8152600401610dc090615a27565b600085116112d25760405162461bcd60e51b81526020600482015260116024820152700425348415245425553445661756c743a3607c1b6044820152606401610dc0565b836113165760405162461bcd60e51b81526020600482015260146024820152731094d2105491509554d115985d5b1d0e909554d160621b6044820152606401610dc0565b6000611321876104c5565b111561133557611330866134ef565b611352565b6006546001600160a01b0387166000908152600f60205260409020555b600b5461136a906001600160a01b031687308861352e565b6113738561359f565b600d54600a546040516370a0823160e01b81526001600160a01b03918216600482015260009291909116906370a0823190602401602060405180830381865afa1580156113c4573d6000803e3d6000fd5b505050506040513d601f19601f820116820180604052508101906113e89190615837565b600b54600a546040516370a0823160e01b81526001600160a01b0391821660048201529293506000929116906370a0823190602401602060405180830381865afa15801561143a573d6000803e3d6000fd5b505050506040513d601f19601f8201168201806040525081019061145e9190615837565b9050600061146d826064615883565b6114778985615883565b61148290601e615883565b61148c91906158f0565b600b5460125460408051630fefd87d60e31b815290519394506000936001600160a01b03938416936370a08231931691637f7ec3e89160048083019260209291908290030181865afa1580156114e6573d6000803e3d6000fd5b505050506040513d601f19601f8201168201806040525081019061150a9190615850565b6040516001600160e01b031960e084901b1681526001600160a01b039091166004820152602401602060405180830381865afa15801561154e573d6000803e3d6000fd5b505050506040513d601f19601f820116820180604052508101906115729190615837565b600261157f8b6001615883565b61158991906158f0565b600c5460125460408051630fefd87d60e31b815290516001600160a01b03938416936370a08231931691637f7ec3e89160048083019260209291908290030181865afa1580156115dd573d6000803e3d6000fd5b505050506040513d601f19601f820116820180604052508101906116019190615850565b6040516001600160e01b031960e084901b1681526001600160a01b039091166004820152602401602060405180830381865afa158015611645573d6000803e3d6000fd5b505050506040513d601f19601f820116820180604052508101906116699190615837565b6116739190615883565b61167d91906158f0565b90506000600c60009054906101000a90046001600160a01b03166001600160a01b031663979caeeb6040518163ffffffff1660e01b81526004016020604051808303816000875af11580156116d6573d6000803e3d6000fd5b505050506040513d601f19601f820116820180604052508101906116fa9190615837565b600d546040516370a0823160e01b815230600482015291925060009185916001600160a01b0316906370a0823190602401602060405180830381865afa158015611748573d6000803e3d6000fd5b505050506040513d601f19601f8201168201806040525081019061176c9190615837565b1061187c57601e600755816117828c6002615883565b61179490670de0b6b3a7640000615883565b61179e91906158f0565b600c549091506001600160a01b03166340c10f19306117bd84876158a0565b6040518363ffffffff1660e01b81526004016117da929190615a5e565b600060405180830381600087803b1580156117f457600080fd5b505af1158015611808573d6000803e3d6000fd5b5050505061187760646007548d61181f9190615883565b61182991906158f0565b8660646007548f61183a9190615883565b61184491906158f0565b61184e908a615883565b61185891906158f0565b600b54600d54600a546001600160a01b039283169291821691166141fe565b611d4e565b600f600755816118948c670de0b6b3a7640000615883565b61189e91906158f0565b60408051600280825260608201835292935060009290916020830190803683375050600b5482519293506001600160a01b0316918391506000906118e4576118e4615a8d565b6001600160a01b039283166020918202929092010152600d5482519116908290600190811061191557611915615a8d565b60200260200101906001600160a01b031690816001600160a01b03168152505061197b600860009054906101000a90046001600160a01b031660646007548f61195e9190615883565b61196891906158f0565b600b546001600160a01b03169190614448565b61199f60646007548e61198e9190615883565b61199891906158f0565b823061454c565b50600b54600a546040516370a0823160e01b81526001600160a01b0391821660048201529116906370a0823190602401602060405180830381865afa1580156119ec573d6000803e3d6000fd5b505050506040513d601f19601f82011682018060405250810190611a109190615837565b9550600c60009054906101000a90046001600160a01b03166001600160a01b03166340c10f1930858f670de0b6b3a7640000611a4c9190615883565b611a5691906158f0565b611a6090886158a0565b6040518363ffffffff1660e01b8152600401611a7d929190615a5e565b600060405180830381600087803b158015611a9757600080fd5b505af1158015611aab573d6000803e3d6000fd5b50505050856064611abc9190615883565b600754611ac98e8a615883565b611ad39190615883565b611add91906158f0565b600d546040516370a0823160e01b81523060048201526001600160a01b03909116906370a0823190602401602060405180830381865afa158015611b25573d6000803e3d6000fd5b505050506040513d601f19601f82011682018060405250810190611b499190615837565b11611c4557600d546040516370a0823160e01b8152306004820152611c409189916001600160a01b03909116906370a0823190602401602060405180830381865afa158015611b9c573d6000803e3d6000fd5b505050506040513d601f19601f82011682018060405250810190611bc09190615837565b611bca9089615883565b611bd491906158f0565b600d546040516370a0823160e01b81523060048201526001600160a01b03909116906370a0823190602401602060405180830381865afa158015611c1c573d6000803e3d6000fd5b505050506040513d601f19601f820116820180604052508101906118589190615837565b611d4c565b611c8660646007548e611c589190615883565b611c6291906158f0565b611c6d886064615883565b6007548f8b611c7c9190615883565b61184e9190615883565b600d546040516370a0823160e01b815230600482018190526001600160a01b0390921691639dc29fac9183906370a0823190602401602060405180830381865afa158015611cd8573d6000803e3d6000fd5b505050506040513d601f19601f82011682018060405250810190611cfc9190615837565b6040518363ffffffff1660e01b8152600401611d19929190615a5e565b600060405180830381600087803b158015611d3357600080fd5b505af1158015611d47573d6000803e3d6000fd5b505050505b505b611de76002611d5e8d6001615883565b611d6891906158f0565b600b54600c5460125460408051630fefd87d60e31b8152905189946001600160a01b03908116948116931691637f7ec3e89160048083019260209291908290030181865afa158015611dbe573d6000803e3d6000fd5b505050506040513d601f19601f82011682018060405250810190611de29190615850565b6141fe565b60125460408051637ff3366f60e01b81529051611ed5926001600160a01b031691637ff3366f9160048083019260209291908290030181865afa158015611e32573d6000803e3d6000fd5b505050506040513d601f19601f82011682018060405250810190611e569190615850565b600b546040516370a0823160e01b81523060048201526001600160a01b03909116906370a0823190602401602060405180830381865afa158015611e9e573d6000803e3d6000fd5b505050506040513d601f19601f82011682018060405250810190611ec29190615837565b600b546001600160a01b0316919061460d565b60055415611ee557600554611eef565b670de0b6b3a76400005b600590815533600090815260116020526040902043905560095490546001600160a01b03909116906340c10f19903090611f2a906064615883565b600354611f389060646158b3565b611f429086615883565b611f5490670de0b6b3a7640000615883565b611f5e91906158f0565b6040518363ffffffff1660e01b8152600401611f7b929190615a5e565b600060405180830381600087803b158015611f9557600080fd5b505af1158015611fa9573d6000803e3d6000fd5b505050506005546064611fbc9190615883565b600354611fca9060646158b3565b611fd49083615883565b611fe690670de0b6b3a7640000615883565b611ff091906158f0565b6001600160a01b038d16600090815260106020526040812080549091906120189084906158a0565b9250508190555080600e600082825461203191906158a0565b9091555050600954604080516318160ddd60e01b815290516001600160a01b03909216916318160ddd916004808201926020929091908290030181865afa158015612080573d6000803e3d6000fd5b505050506040513d601f19601f820116820180604052508101906120a49190615837565b600e546120b990670de0b6b3a7640000615883565b6120c391906158f0565b6005556040805160c08082526010908201526f1094d2105491509554d10815985d5b1d60821b60e08201523060208201526001600160a01b038e1681830152606081018d90524360808201524260a082015290517fb78af891b0e8c2e617c2a91471c40accb2559e2aa533b41746a9d2e580b4bc33918190036101000190a1505050505050505060055481111561215c5761215c61462c565b5050600180555050565b601254604051632474521560e21b8152600060048201523360248201526001600160a01b03909116906391d1485490604401602060405180830381865afa1580156121b5573d6000803e3d6000fd5b505050506040513d601f19601f820116820180604052508101906121d99190615904565b6121e257600080fd5b8060000361221c5760405162461bcd60e51b81526020600482015260076024820152665461785a65726f60c81b6044820152606401610dc0565b7f907f4d6d4b3896077a581010447dde76c2ff4f4cca4dc57517709f6cf0d2c8c030600354834342604051612255959493929190615aa3565b60405180910390a1600355565b601254604051632474521560e21b8152600060048201523360248201526001600160a01b03909116906391d1485490604401602060405180830381865afa1580156122b1573d6000803e3d6000fd5b505050506040513d601f19601f820116820180604052508101906122d59190615904565b6122de57600080fd5b600181111561231d5760405162461bcd60e51b815260206004820152600b60248201526a496e76616c69644461746160a81b6044820152606401610dc0565b806000036123ff57601260009054906101000a90046001600160a01b03166001600160a01b03166364e0f8e06040518163ffffffff1660e01b8152600401602060405180830381865afa158015612378573d6000803e3d6000fd5b505050506040513d601f19601f8201168201806040525081019061239c9190615850565b6001600160a01b0316639dc29fac30846040518363ffffffff1660e01b81526004016123c9929190615a5e565b600060405180830381600087803b1580156123e357600080fd5b505af11580156123f7573d6000803e3d6000fd5b505050505050565b601260009054906101000a90046001600160a01b03166001600160a01b03166364e0f8e06040518163ffffffff1660e01b8152600401602060405180830381865afa158015612452573d6000803e3d6000fd5b505050506040513d601f19601f820116820180604052508101906124769190615850565b6001600160a01b031663a9059cbb33846040518363ffffffff1660e01b81526004016124a3929190615a5e565b6020604051808303816000875af11580156124c2573d6000803e3d6000fd5b505050506040513d601f19601f820116820180604052508101906124e69190615904565b505050565b600054610100900460ff1680612504575060005460ff16155b6125675760405162461bcd60e51b815260206004820152602e60248201527f496e697469616c697a61626c653a20636f6e747261637420697320616c72656160448201526d191e481a5b9a5d1a585b1a5e995960921b6064820152608401610dc0565b600054610100900460ff16158015612589576000805461ffff19166101011790555b601280546001600160a01b038086166001600160a01b03199283168117909355600a8054918616919092161790556040805163494ecced60e01b8152905163494ecced916004808201926020929091908290030181865afa1580156125f2573d6000803e3d6000fd5b505050506040513d601f19601f820116820180604052508101906126169190615850565b600880546001600160a01b0319166001600160a01b0392831617905560125460408051630d448c5560e41b815290516126a293929092169163d448c550916004808201926020929091908290030181865afa158015612679573d6000803e3d6000fd5b505050506040513d601f19601f8201168201806040525081019061269d9190615850565b6146a1565b600980546001600160a01b0319166001600160a01b03928316908117825560405163100b506960e11b8152928616600484015230602484015260806044840152608483018290526804253484152452d4c560bc1b60a4840181905260c0606485015260c484019290925260e483019190915290632016a0d29061010401600060405180830381600087803b15801561273957600080fd5b505af115801561274d573d6000803e3d6000fd5b5050600a6003555050670de0b6b3a76400006005556012546040805163484f4ea960e01b815290516001600160a01b039092169163484f4ea9916004808201926020929091908290030181865afa1580156127ac573d6000803e3d6000fd5b505050506040513d601f19601f820116820180604052508101906127d09190615850565b600b80546001600160a01b0319166001600160a01b039283161790556012546040805163554691a560e01b81529051919092169163554691a59160048083019260209291908290030181865afa15801561282e573d6000803e3d6000fd5b505050506040513d601f19601f820116820180604052508101906128529190615850565b600c80546001600160a01b0319166001600160a01b0392831617905560125460408051639007bc3160e01b815290519190921691639007bc319160048083019260209291908290030181865afa1580156128b0573d6000803e3d6000fd5b505050506040513d601f19601f820116820180604052508101906128d49190615850565b600d80546001600160a01b0319166001600160a01b039290921691909117905580156124e6576000805461ff0019169055505050565b60025460ff161561292d5760405162461bcd60e51b8152600401610dc090615958565b601260009054906101000a90046001600160a01b03166001600160a01b031663b5b282c46040518163ffffffff1660e01b8152600401602060405180830381865afa158015612980573d6000803e3d6000fd5b505050506040513d601f19601f820116820180604052508101906129a49190615904565b156129f15760405162461bcd60e51b815260206004820152601d60248201527f43616e6e6f74207769746864726177207768696c65206275794261636b0000006044820152606401610dc0565b6124e683838361473e565b600260015403612a1e5760405162461bcd60e51b8152600401610dc090615921565b6002600155601254604051632474521560e21b8152600060048201523360248201526001600160a01b03909116906391d1485490604401602060405180830381865afa158015612a72573d6000803e3d6000fd5b505050506040513d601f19601f82011682018060405250810190612a969190615904565b612a9f57600080fd5b600d8054911515600160a01b0260ff60a01b1990921691909117905560018055565b600260015403612ae35760405162461bcd60e51b8152600401610dc090615921565b600260015560125460408051630e02f7ab60e01b815290516001600160a01b0390921691630e02f7ab916004808201926020929091908290030181865afa158015612b32573d6000803e3d6000fd5b505050506040513d601f19601f82011682018060405250810190612b569190615850565b6001600160a01b0316336001600160a01b031614612b7357600080fd5b600960009054906101000a90046001600160a01b03166001600160a01b03166318160ddd6040518163ffffffff1660e01b8152600401602060405180830381865afa158015612bc6573d6000803e3d6000fd5b505050506040513d601f19601f82011682018060405250810190612bea9190615837565b15612c9357600960009054906101000a90046001600160a01b03166001600160a01b03166318160ddd6040518163ffffffff1660e01b8152600401602060405180830381865afa158015612c42573d6000803e3d6000fd5b505050506040513d601f19601f82011682018060405250810190612c669190615837565b612c7882670de0b6b3a7640000615883565b612c8291906158f0565b600654612c8f91906158a0565b6006555b5060018055565b601254604051632474521560e21b8152600060048201523360248201526001600160a01b03909116906391d1485490604401602060405180830381865afa158015612ce9573d6000803e3d6000fd5b505050506040513d601f19601f82011682018060405250810190612d0d9190615904565b612d1657600080fd5b80600003612d505760405162461bcd60e51b81526020600482015260076024820152665461787a65726f60c81b6044820152606401610dc0565b600455565b600260015403612d775760405162461bcd60e51b8152600401610dc090615921565b6002600155601254604051632474521560e21b8152600060048201523360248201526001600160a01b03909116906391d1485490604401602060405180830381865afa158015612dcb573d6000803e3d6000fd5b505050506040513d601f19601f82011682018060405250810190612def9190615904565b612df857600080fd5b600181151514612e0f57612e0a615426565b612c93565b612c9361462c565b601254604051632474521560e21b8152600060048201523360248201526001600160a01b03909116906391d1485490604401602060405180830381865afa158015612e66573d6000803e3d6000fd5b505050506040513d601f19601f82011682018060405250810190612e8a9190615904565b612e9357600080fd5b6001600160a01b038116612edc5760405162461bcd60e51b815260206004820152601060248201526f59534c3a20496e76616c69644461746160801b6044820152606401610dc0565b600880546001600160a01b0319166001600160a01b0392909216919091179055565b600260015403612f205760405162461bcd60e51b8152600401610dc090615921565b6002600155612f3160025460ff1690565b15612f4e5760405162461bcd60e51b8152600401610dc090615958565b600d54600160a01b900460ff1615612f785760405162461bcd60e51b8152600401610dc090615982565b8081601260009054906101000a90046001600160a01b03166001600160a01b031663c95b48256040518163ffffffff1660e01b8152600401602060405180830381865afa158015612fcd573d6000803e3d6000fd5b505050506040513d601f19601f82011682018060405250810190612ff19190615850565b60405163906f634360e01b81523360048201526001600160a01b03919091169063906f634390602401602060405180830381865afa158015613037573d6000803e3d6000fd5b505050506040513d601f19601f8201168201806040525081019061305b9190615904565b156130785760405162461bcd60e51b8152600401610dc0906159ad565b601260009054906101000a90046001600160a01b03166001600160a01b03166393e59dc16040518163ffffffff1660e01b8152600401602060405180830381865afa1580156130cb573d6000803e3d6000fd5b505050506040513d601f19601f820116820180604052508101906130ef9190615850565b60405163906f634360e01b81523360048201526001600160a01b03919091169063906f634390602401602060405180830381865afa158015613135573d6000803e3d6000fd5b505050506040513d601f19601f820116820180604052508101906131599190615904565b8061316c57506001600160a01b03821633145b61317557600080fd5b333b63ffffffff161561327f57601260009054906101000a90046001600160a01b03166001600160a01b03166393e59dc16040518163ffffffff1660e01b8152600401602060405180830381865afa1580156131d5573d6000803e3d6000fd5b505050506040513d601f19601f820116820180604052508101906131f99190615850565b60405163906f634360e01b81523360048201526001600160a01b03919091169063906f634390602401602060405180830381865afa15801561323f573d6000803e3d6000fd5b505050506040513d601f19601f820116820180604052508101906132639190615904565b61327f5760405162461bcd60e51b8152600401610dc0906159e4565b601260009054906101000a90046001600160a01b03166001600160a01b03166393e59dc16040518163ffffffff1660e01b8152600401602060405180830381865afa1580156132d2573d6000803e3d6000fd5b505050506040513d601f19601f820116820180604052508101906132f69190615850565b60405163906f634360e01b81526001600160a01b038481166004830152919091169063906f634390602401602060405180830381865afa15801561333e573d6000803e3d6000fd5b505050506040513d601f19601f820116820180604052508101906133629190615904565b61339e576001600160a01b03821660009081526011602052604090205443900361339e5760405162461bcd60e51b8152600401610dc090615a27565b6133a7836134ef565b50506001805550565b601260009054906101000a90046001600160a01b03166001600160a01b031663b5b282c46040518163ffffffff1660e01b8152600401602060405180830381865afa158015613403573d6000803e3d6000fd5b505050506040513d601f19601f820116820180604052508101906134279190615904565b156134745760405162461bcd60e51b815260206004820152601860248201527f59534c2d425553443a2043616e277420776974686472617700000000000000006044820152606401610dc0565b3360009081526010602052604081205490036134d25760405162461bcd60e51b815260206004820152601d60248201527f59534c2d425553443a204e6f7468696e6720746f2077697468647261770000006044820152606401610dc0565b336000818152601060205260409020546134ed91908161473e565b565b61350f816134fc836104c5565b600c546001600160a01b0316919061460d565b6006546001600160a01b039091166000908152600f6020526040902055565b6040516001600160a01b03808516602483015283166044820152606481018290526135999085906323b872dd60e01b906084015b60408051601f198184030181529190526020810180516001600160e01b03166001600160e01b0319909316929092179091526154a0565b50505050565b6040805160028082526060820183526000926020830190803683375050600c5482519293506001600160a01b0316918391506000906135e0576135e0615a8d565b6001600160a01b039283166020918202929092010152600b5482519116908290600190811061361157613611615a8d565b6001600160a01b0392831660209182029290920181019190915260125460408051632d6ca0b160e21b81529051919093169263b5b282c49260048083019391928290030181865afa15801561366a573d6000803e3d6000fd5b505050506040513d601f19601f8201168201806040525081019061368e9190615904565b15613b6357601254604080516327f843b560e11b8152905142926001600160a01b031691634ff0876a9160048083019260209291908290030181865afa1580156136dc573d6000803e3d6000fd5b505050506040513d601f19601f820116820180604052508101906137009190615837565b61370b906003615883565b601260009054906101000a90046001600160a01b03166001600160a01b03166330f75e806040518163ffffffff1660e01b8152600401602060405180830381865afa15801561375e573d6000803e3d6000fd5b505050506040513d601f19601f820116820180604052508101906137829190615837565b61378c91906158a0565b10156139065760085460405163d06ca61f60e01b81526001600160a01b039091169063d06ca61f906137cc90670de0b6b3a7640000908590600401615b46565b600060405180830381865afa1580156137e9573d6000803e3d6000fd5b505050506040513d6000823e601f3d908101601f191682016040526138119190810190615b5f565b60018151811061382357613823615a8d565b6020026020010151670d99a8cec7e2000011156138a757601260009054906101000a90046001600160a01b03166001600160a01b031663df8982146040518163ffffffff1660e01b8152600401600060405180830381600087803b15801561388a57600080fd5b505af115801561389e573d6000803e3d6000fd5b50505050613906565b60125460405163058d4fd360e21b8152600060048201526001600160a01b03909116906316353f4c90602401600060405180830381600087803b1580156138ed57600080fd5b505af1158015613901573d6000803e3d6000fd5b505050505b60125460408051637ff3366f60e01b81529051613998926001600160a01b031691637ff3366f9160048083019260209291908290030181865afa158015613951573d6000803e3d6000fd5b505050506040513d601f19601f820116820180604052508101906139759190615850565b612710613983856014615883565b61398e906019615883565b611ec291906158f0565b600b5481516001600160a01b039091169082906000906139ba576139ba615a8d565b6001600160a01b039283166020918202929092010152600c548251911690829060019081106139eb576139eb615a8d565b6001600160a01b039283166020918202929092010152600854613a229116612710613a17856014615883565b61195e90604b615883565b6008546000906001600160a01b03166338ed1739612710613a44866014615883565b613a4f90604b615883565b613a5991906158f0565b60008530613a69426103e86158a0565b6040518663ffffffff1660e01b8152600401613a89959493929190615c1d565b6000604051808303816000875af1158015613aa8573d6000803e3d6000fd5b505050506040513d6000823e601f3d908101601f19168201604052613ad09190810190615b5f565b60018351613ade91906158b3565b81518110613aee57613aee615a8d565b6020908102919091010151600c54604051632770a7eb60e21b81529192506001600160a01b031690639dc29fac90613b2c9030908590600401615a5e565b600060405180830381600087803b158015613b4657600080fd5b505af1158015613b5a573d6000803e3d6000fd5b50505050505050565b601260009054906101000a90046001600160a01b03166001600160a01b0316630d5720786040518163ffffffff1660e01b8152600401602060405180830381865afa158015613bb6573d6000803e3d6000fd5b505050506040513d601f19601f82011682018060405250810190613bda9190615904565b158015613cdd5750601254604080516327f843b560e11b8152905142926001600160a01b031691634ff0876a9160048083019260209291908290030181865afa158015613c2b573d6000803e3d6000fd5b505050506040513d601f19601f82011682018060405250810190613c4f9190615837565b613c5a906003615883565b601260009054906101000a90046001600160a01b03166001600160a01b03166330f75e806040518163ffffffff1660e01b8152600401602060405180830381865afa158015613cad573d6000803e3d6000fd5b505050506040513d601f19601f82011682018060405250810190613cd19190615837565b613cdb91906158a0565b105b8015613d88575060085460405163d06ca61f60e01b81526001600160a01b039091169063d06ca61f90613d1e90670de0b6b3a7640000908590600401615b46565b600060405180830381865afa158015613d3b573d6000803e3d6000fd5b505050506040513d6000823e601f3d908101601f19168201604052613d639190810190615b5f565b600181518110613d7557613d75615a8d565b6020026020010151670d99a8cec7e20000115b15613dec5760125460405163058d4fd360e21b8152600160048201526001600160a01b03909116906316353f4c90602401600060405180830381600087803b158015613dd357600080fd5b505af1158015613de7573d6000803e3d6000fd5b505050505b6012546040805163563df32f60e01b81529051613e66926001600160a01b03169163563df32f9160048083019260209291908290030181865afa158015613e37573d6000803e3d6000fd5b505050506040513d601f19601f82011682018060405250810190613e5b9190615850565b611ec2600a856158f0565b601260009054906101000a90046001600160a01b03166001600160a01b031663bf10545b6040518163ffffffff1660e01b8152600401602060405180830381865afa158015613eb9573d6000803e3d6000fd5b505050506040513d601f19601f82011682018060405250810190613edd9190615850565b6001600160a01b031663f4c7d3136040518163ffffffff1660e01b81526004016020604051808303816000875af1158015613f1c573d6000803e3d6000fd5b505050506040513d601f19601f82011682018060405250810190613f409190615837565b50600080601260009054906101000a90046001600160a01b03166001600160a01b0316635a6ac3426040518163ffffffff1660e01b8152600401602060405180830381865afa158015613f97573d6000803e3d6000fd5b505050506040513d601f19601f82011682018060405250810190613fbb9190615850565b6001600160a01b0316630bcc2b77336064613fd7886009615883565b613fe191906158f0565b6040516001600160e01b031960e085901b1681526001600160a01b03909216600483015260248201526044810187905260640160408051808303816000875af1158015614032573d6000803e3d6000fd5b505050506040513d601f19601f820116820180604052508101906140569190615c59565b91509150816000146140fa5761407333606461398e876001615883565b60125460408051632d3561a160e11b815290516140f5926001600160a01b031691635a6ac3429160048083019260209291908290030181865afa1580156140be573d6000803e3d6000fd5b505050506040513d601f19601f820116820180604052508101906140e29190615850565b600b546001600160a01b0316908461460d565b614176565b60125460408051637ff3366f60e01b81529051614176926001600160a01b031691637ff3366f9160048083019260209291908290030181865afa158015614145573d6000803e3d6000fd5b505050506040513d601f19601f820116820180604052508101906141699190615850565b606461398e876001615883565b80156135995760125460408051637ff3366f60e01b81529051613599926001600160a01b031691637ff3366f9160048083019260209291908290030181865afa1580156141c7573d6000803e3d6000fd5b505050506040513d601f19601f820116820180604052508101906141eb9190615850565b600b546001600160a01b0316908361460d565b60085460405163095ea7b360e01b81526001600160a01b038581169263095ea7b39261423292909116908990600401615a5e565b6020604051808303816000875af1158015614251573d6000803e3d6000fd5b505050506040513d601f19601f820116820180604052508101906142759190615904565b5060085460405163095ea7b360e01b81526001600160a01b038481169263095ea7b3926142aa92909116908890600401615a5e565b6020604051808303816000875af11580156142c9573d6000803e3d6000fd5b505050506040513d601f19601f820116820180604052508101906142ed9190615904565b50600860009054906101000a90046001600160a01b03166001600160a01b031663e8e3370084848888600180601260009054906101000a90046001600160a01b03166001600160a01b031663563df32f6040518163ffffffff1660e01b8152600401602060405180830381865afa15801561436c573d6000803e3d6000fd5b505050506040513d601f19601f820116820180604052508101906143909190615850565b61439e42636412b7726158a0565b60405160e08a901b6001600160e01b03191681526001600160a01b039889166004820152968816602488015260448701959095526064860193909352608485019190915260a484015290921660c482015260e4810191909152610104016060604051808303816000875af115801561441a573d6000803e3d6000fd5b505050506040513d601f19601f8201168201806040525081019061443e9190615c7d565b5050505050505050565b8015806144c25750604051636eb1769f60e11b81523060048201526001600160a01b03838116602483015284169063dd62ed3e90604401602060405180830381865afa15801561449c573d6000803e3d6000fd5b505050506040513d601f19601f820116820180604052508101906144c09190615837565b155b61452d5760405162461bcd60e51b815260206004820152603660248201527f5361666545524332303a20617070726f76652066726f6d206e6f6e2d7a65726f60448201527520746f206e6f6e2d7a65726f20616c6c6f77616e636560501b6064820152608401610dc0565b6124e68363095ea7b360e01b8484604051602401613562929190615a5e565b60085460009081906001600160a01b03166338ed173986838787614572426103e86158a0565b6040518663ffffffff1660e01b8152600401614592959493929190615c1d565b6000604051808303816000875af11580156145b1573d6000803e3d6000fd5b505050506040513d6000823e601f3d908101601f191682016040526145d99190810190615b5f565b600185516145e791906158b3565b815181106145f7576145f7615a8d565b60200260200101519050809150505b9392505050565b6124e68363a9059cbb60e01b8484604051602401613562929190615a5e565b60025460ff161561464f5760405162461bcd60e51b8152600401610dc090615958565b6002805460ff191660011790557f62e78cea01bee320cd4e420270b5ea74000d11b0c9f74754ebdbfc544b05a2586146843390565b6040516001600160a01b03909116815260200160405180910390a1565b6000604051733d602d80600a3d3981f3363d3d373d3d3d363d7360601b81528260601b60148201526e5af43d82803e903d91602b57fd5bf360881b60288201526037816000f09150506001600160a01b0381166147395760405162461bcd60e51b8152602060048201526016602482015275115490cc4c4d8dce8818dc99585d194819985a5b195960521b6044820152606401610dc0565b919050565b6002600154036147605760405162461bcd60e51b8152600401610dc090615921565b6002600155600554600d54600160a01b900460ff16156147925760405162461bcd60e51b8152600401610dc090615982565b8382601260009054906101000a90046001600160a01b03166001600160a01b031663c95b48256040518163ffffffff1660e01b8152600401602060405180830381865afa1580156147e7573d6000803e3d6000fd5b505050506040513d601f19601f8201168201806040525081019061480b9190615850565b60405163906f634360e01b81523360048201526001600160a01b03919091169063906f634390602401602060405180830381865afa158015614851573d6000803e3d6000fd5b505050506040513d601f19601f820116820180604052508101906148759190615904565b156148925760405162461bcd60e51b8152600401610dc0906159ad565b601260009054906101000a90046001600160a01b03166001600160a01b03166393e59dc16040518163ffffffff1660e01b8152600401602060405180830381865afa1580156148e5573d6000803e3d6000fd5b505050506040513d601f19601f820116820180604052508101906149099190615850565b60405163906f634360e01b81523360048201526001600160a01b03919091169063906f634390602401602060405180830381865afa15801561494f573d6000803e3d6000fd5b505050506040513d601f19601f820116820180604052508101906149739190615904565b8061498657506001600160a01b03821633145b61498f57600080fd5b333b63ffffffff1615614a9957601260009054906101000a90046001600160a01b03166001600160a01b03166393e59dc16040518163ffffffff1660e01b8152600401602060405180830381865afa1580156149ef573d6000803e3d6000fd5b505050506040513d601f19601f82011682018060405250810190614a139190615850565b60405163906f634360e01b81523360048201526001600160a01b03919091169063906f634390602401602060405180830381865afa158015614a59573d6000803e3d6000fd5b505050506040513d601f19601f82011682018060405250810190614a7d9190615904565b614a995760405162461bcd60e51b8152600401610dc0906159e4565b601260009054906101000a90046001600160a01b03166001600160a01b03166393e59dc16040518163ffffffff1660e01b8152600401602060405180830381865afa158015614aec573d6000803e3d6000fd5b505050506040513d601f19601f82011682018060405250810190614b109190615850565b60405163906f634360e01b81526001600160a01b038481166004830152919091169063906f634390602401602060405180830381865afa158015614b58573d6000803e3d6000fd5b505050506040513d601f19601f82011682018060405250810190614b7c9190615904565b614bb8576001600160a01b038216600090815260116020526040902054439003614bb85760405162461bcd60e51b8152600401610dc090615a27565b6001600160a01b038616600090815260106020526040902054851115614c205760405162461bcd60e51b815260206004820152601c60248201527f425348415245425553445661756c743a20496e76616c696444617461000000006044820152606401610dc0565b6040805160028082526060820183526000926020830190803683375050600c5482519293506001600160a01b031691839150600090614c6157614c61615a8d565b6001600160a01b039283166020918202929092010152600b54825191169082906001908110614c9257614c92615a8d565b6001600160a01b0392831660209182029290920181019190915260125460408051632d6ca0b160e21b81529051919093169263b5b282c49260048083019391928290030181865afa158015614ceb573d6000803e3d6000fd5b505050506040513d601f19601f82011682018060405250810190614d0f9190615904565b15614f7357601254604080516327f843b560e11b8152905142926001600160a01b031691634ff0876a9160048083019260209291908290030181865afa158015614d5d573d6000803e3d6000fd5b505050506040513d601f19601f82011682018060405250810190614d819190615837565b614d8c906003615883565b601260009054906101000a90046001600160a01b03166001600160a01b03166330f75e806040518163ffffffff1660e01b8152600401602060405180830381865afa158015614ddf573d6000803e3d6000fd5b505050506040513d601f19601f82011682018060405250810190614e039190615837565b614e0d91906158a0565b1015614f6e5760085460405163d06ca61f60e01b81526001600160a01b039091169063d06ca61f90614e4d90670de0b6b3a7640000908590600401615b46565b600060405180830381865afa158015614e6a573d6000803e3d6000fd5b505050506040513d6000823e601f3d908101601f19168201604052614e929190810190615b5f565b600181518110614ea457614ea4615a8d565b6020026020010151670d99a8cec7e200001115614f2857601260009054906101000a90046001600160a01b03166001600160a01b031663df8982146040518163ffffffff1660e01b8152600401600060405180830381600087803b158015614f0b57600080fd5b505af1158015614f1f573d6000803e3d6000fd5b505050506151fc565b60125460405163058d4fd360e21b8152600060048201526001600160a01b03909116906316353f4c90602401600060405180830381600087803b158015614f0b57600080fd5b6151fc565b601260009054906101000a90046001600160a01b03166001600160a01b0316630d5720786040518163ffffffff1660e01b8152600401602060405180830381865afa158015614fc6573d6000803e3d6000fd5b505050506040513d601f19601f82011682018060405250810190614fea9190615904565b1580156150ed5750601254604080516327f843b560e11b8152905142926001600160a01b031691634ff0876a9160048083019260209291908290030181865afa15801561503b573d6000803e3d6000fd5b505050506040513d601f19601f8201168201806040525081019061505f9190615837565b61506a906003615883565b601260009054906101000a90046001600160a01b03166001600160a01b03166330f75e806040518163ffffffff1660e01b8152600401602060405180830381865afa1580156150bd573d6000803e3d6000fd5b505050506040513d601f19601f820116820180604052508101906150e19190615837565b6150eb91906158a0565b105b8015615198575060085460405163d06ca61f60e01b81526001600160a01b039091169063d06ca61f9061512e90670de0b6b3a7640000908590600401615b46565b600060405180830381865afa15801561514b573d6000803e3d6000fd5b505050506040513d6000823e601f3d908101601f191682016040526151739190810190615b5f565b60018151811061518557615185615a8d565b6020026020010151670d99a8cec7e20000115b156151fc5760125460405163058d4fd360e21b8152600160048201526001600160a01b03909116906316353f4c90602401600060405180830381600087803b1580156151e357600080fd5b505af11580156151f7573d6000803e3d6000fd5b505050505b6000615207886104c5565b111561521657615216876134ef565b6000670de0b6b3a76400006005548861522f9190615883565b61523991906158f0565b9050615264866064600454606461525091906158b3565b61525a9085615883565b6134fc91906158f0565b6064600454606461527591906158b3565b61527f9083615883565b61528991906158f0565b600e600082825461529a91906158b3565b9091555050600954604051632770a7eb60e21b81526001600160a01b0390911690639dc29fac906152d19030908b90600401615a5e565b600060405180830381600087803b1580156152eb57600080fd5b505af11580156152ff573d6000803e3d6000fd5b505050506001600160a01b0388166000908152601060205260408120805489929061532b9084906158b3565b90915550503360009081526011602090815260409182902043905560095482516318160ddd60e01b815292516001600160a01b03909116926318160ddd9260048083019391928290030181865afa15801561538a573d6000803e3d6000fd5b505050506040513d601f19601f820116820180604052508101906153ae9190615837565b600e546153c390670de0b6b3a7640000615883565b6153cd91906158f0565b6005556040517f753a78f77e8348d10e8c5f8bac13fc1a40884a1a9c0ae84fb585910e9aa31024906154089030908b908b9043904290615cab565b60405180910390a15050505060055481111561215c5761215c61462c565b60025460ff1661546f5760405162461bcd60e51b815260206004820152601460248201527314185d5cd8589b194e881b9bdd081c185d5cd95960621b6044820152606401610dc0565b6002805460ff191690557f5db9ee0a495bf2e6ff9c91a7834c1ba4fdd244a5e8aa4e537bd38aeae4b073aa33614684565b60006154f5826040518060400160405280602081526020017f5361666545524332303a206c6f772d6c6576656c2063616c6c206661696c6564815250856001600160a01b03166155729092919063ffffffff16565b8051909150156124e657808060200190518101906155139190615904565b6124e65760405162461bcd60e51b815260206004820152602a60248201527f5361666545524332303a204552433230206f7065726174696f6e20646964206e6044820152691bdd081cdd58d8d9595960b21b6064820152608401610dc0565b60606155818484600085615589565b949350505050565b6060824710156155ea5760405162461bcd60e51b815260206004820152602660248201527f416464726573733a20696e73756666696369656e742062616c616e636520666f6044820152651c8818d85b1b60d21b6064820152608401610dc0565b843b6156385760405162461bcd60e51b815260206004820152601d60248201527f416464726573733a2063616c6c20746f206e6f6e2d636f6e74726163740000006044820152606401610dc0565b600080866001600160a01b031685876040516156549190615d32565b60006040518083038185875af1925050503d8060008114615691576040519150601f19603f3d011682016040523d82523d6000602084013e615696565b606091505b50915091506156a68282866156b1565b979650505050505050565b606083156156c0575081614606565b8251156156d05782518084602001fd5b8160405162461bcd60e51b8152600401610dc09190615d4e565b6001600160a01b03811681146156ff57600080fd5b50565b60006020828403121561571457600080fd5b8135614606816156ea565b60006020828403121561573157600080fd5b5035919050565b80151581146156ff57600080fd5b60008060006060848603121561575b57600080fd5b8335615766816156ea565b925060208401359150604084013561577d81615738565b809150509250925092565b6000806040838503121561579b57600080fd5b50508035926020909101359150565b600080604083850312156157bd57600080fd5b82356157c8816156ea565b915060208301356157d8816156ea565b809150509250929050565b6000806000606084860312156157f857600080fd5b8335615803816156ea565b925060208401359150604084013561577d816156ea565b60006020828403121561582c57600080fd5b813561460681615738565b60006020828403121561584957600080fd5b5051919050565b60006020828403121561586257600080fd5b8151614606816156ea565b634e487b7160e01b600052601160045260246000fd5b808202811582820484141761589a5761589a61586d565b92915050565b8082018082111561589a5761589a61586d565b8181038181111561589a5761589a61586d565b634e487b7160e01b600052601260045260246000fd5b6000826158eb576158eb6158c6565b500690565b6000826158ff576158ff6158c6565b500490565b60006020828403121561591657600080fd5b815161460681615738565b6020808252601f908201527f5265656e7472616e637947756172643a207265656e7472616e742063616c6c00604082015260600190565b60208082526010908201526f14185d5cd8589b194e881c185d5cd95960821b604082015260600190565b60208082526011908201527018dbdb5c1b195d195b1e4814185d5cd959607a1b604082015260600190565b6020808252601b908201527f425348415245425553445661756c743a426c61636b6c69737465640000000000604082015260600190565b60208082526023908201527f425348415245425553445661756c743a45787465726e616c496e74657261637460408201526234b7b760e91b606082015260800190565b60208082526019908201527f425348415245425553445661756c743a53616d65426c6f636b00000000000000604082015260600190565b6001600160a01b03929092168252602082015260400190565b634e487b7160e01b600052604160045260246000fd5b634e487b7160e01b600052603260045260246000fd5b60c081526000615ad260c08301600f81526e1094d2105491509554d115985d5b1d608a1b602082015260400190565b6001600160a01b039790971660208301525060408101949094526060840192909252608083015260a09091015290565b600081518084526020808501945080840160005b83811015615b3b5781516001600160a01b031687529582019590820190600101615b16565b509495945050505050565b8281526040602082015260006155816040830184615b02565b60006020808385031215615b7257600080fd5b825167ffffffffffffffff80821115615b8a57600080fd5b818501915085601f830112615b9e57600080fd5b815181811115615bb057615bb0615a77565b8060051b604051601f19603f83011681018181108582111715615bd557615bd5615a77565b604052918252848201925083810185019188831115615bf357600080fd5b938501935b82851015615c1157845184529385019392850192615bf8565b98975050505050505050565b85815284602082015260a060408201526000615c3c60a0830186615b02565b6001600160a01b0394909416606083015250608001529392505050565b60008060408385031215615c6c57600080fd5b505080516020909101519092909150565b600080600060608486031215615c9257600080fd5b8351925060208401519150604084015190509250925092565b60c081526000615cda60c08301600f81526e1094d2105491509554d115985d5b1d608a1b602082015260400190565b6001600160a01b0397881660208401529590961660408201526060810193909352608083019190915260a090910152919050565b60005b83811015615d29578181015183820152602001615d11565b50506000910152565b60008251615d44818460208701615d0e565b9190910192915050565b6020815260008251806020840152615d6d816040850160208701615d0e565b601f01601f1916919091016040019291505056fea26469706673582212207965e39af8da04091f7005aa0a60de29769c33ab788673f9203bd4b2de4a2fbb64736f6c63430008110033",
    "sourcePath": "/home/user/ysl/contracts/Vaults/BSHAREBUSDVault.sol",
    "compiler": {
        "name": "solc",
        "version": "0.8.17+commit.8df45f5f"
    },
    "functionHashes": {
        "Admin()": "ff1b636d",
        "BSHAREBUSD()": "df9aa8ec",
        "BSHAREBUSD_A()": "43e15731",
        "BShare()": "9007bc31",
        "BUSD()": "484f4ea9",
        "DEFAULT_ADMIN_ROLE()": "a217fddf",
        "USDy()": "554691a5",
        "UserDeposit(address)": "916a25ff",
        "burnOrRemove(uint256,uint256)": "473b9be1",
        "claimReward(address)": "d279c191",
        "completePause()": "3f078193",
        "currentReward()": "07621eca",
        "deposit(address,uint256,bool)": "3edd1128",
        "depositTax()": "f765fd8f",
        "distribute(uint256)": "91c05b0b",
        "emergencyWithdraw()": "db2e21bc",
        "epochReward(uint256)": "30da5240",
        "exchangeRatio()": "4006ccc5",
        "initialize(address,address)": "485cc955",
        "paused()": "5c975abb",
        "percentBSHARE()": "987d96c4",
        "receiptToken()": "ec78e832",
        "restrictTransfer(address)": "9cfa41c3",
        "rewards(address)": "0700037d",
        "router()": "f887ea40",
        "setBSHAREBUSD(address)": "11f94f13",
        "setCompletePause(bool)": "798d9ce3",
        "setDepositTax(uint256)": "40f290d3",
        "setPause(bool)": "bedb86fb",
        "setRouter(address)": "c0d78655",
        "setWithdrawTax(uint256)": "a49ca5d2",
        "ss(address)": "780a9652",
        "totalDeposit()": "f6153ccd",
        "withdraw(address,uint256,address)": "69328dec",
        "withdrawTax()": "dfa20f0a"
    },
    "gasEstimates": {
        "creation": {
            "codeDepositCost": "4798200",
            "executionCost": "51973",
            "totalCost": "4850173"
        },
        "external": {
            "Admin()": "2469",
            "BSHAREBUSD()": "2426",
            "BSHAREBUSD_A()": "2383",
            "BShare()": "2383",
            "BUSD()": "2427",
            "DEFAULT_ADMIN_ROLE()": "251",
            "USDy()": "2382",
            "UserDeposit(address)": "2570",
            "burnOrRemove(uint256,uint256)": "infinite",
            "claimReward(address)": "infinite",
            "completePause()": "2395",
            "currentReward()": "2353",
            "deposit(address,uint256,bool)": "infinite",
            "depositTax()": "2372",
            "distribute(uint256)": "infinite",
            "emergencyWithdraw()": "infinite",
            "epochReward(uint256)": "2540",
            "exchangeRatio()": "2374",
            "initialize(address,address)": "infinite",
            "paused()": "2371",
            "percentBSHARE()": "2396",
            "receiptToken()": "2375",
            "restrictTransfer(address)": "2547",
            "rewards(address)": "infinite",
            "router()": "2447",
            "setBSHAREBUSD(address)": "infinite",
            "setCompletePause(bool)": "infinite",
            "setDepositTax(uint256)": "infinite",
            "setPause(bool)": "infinite",
            "setRouter(address)": "infinite",
            "setWithdrawTax(uint256)": "infinite",
            "ss(address)": "2613",
            "totalDeposit()": "2350",
            "withdraw(address,uint256,address)": "infinite",
            "withdrawTax()": "2395"
        },
        "internal": {
            "_claimRebaseReward(address)": "infinite",
            "_convertBUSDToLP(uint256,uint256,address,address,address)": "infinite",
            "_isContract(address)": "infinite",
            "_swap(uint256,address[] memory,address)": "infinite",
            "_tax(uint256)": "infinite",
            "_withdraw(address,uint256,address)": "infinite"
        }
    }
}