{
    "contractName": "USDyRebalancer",
    "abi": [
        {
            "anonymous": false,
            "inputs": [
                {
                    "indexed": true,
                    "internalType": "bytes32",
                    "name": "role",
                    "type": "bytes32"
                },
                {
                    "indexed": true,
                    "internalType": "bytes32",
                    "name": "previousAdminRole",
                    "type": "bytes32"
                },
                {
                    "indexed": true,
                    "internalType": "bytes32",
                    "name": "newAdminRole",
                    "type": "bytes32"
                }
            ],
            "name": "RoleAdminChanged",
            "type": "event"
        },
        {
            "anonymous": false,
            "inputs": [
                {
                    "indexed": true,
                    "internalType": "bytes32",
                    "name": "role",
                    "type": "bytes32"
                },
                {
                    "indexed": true,
                    "internalType": "address",
                    "name": "account",
                    "type": "address"
                },
                {
                    "indexed": true,
                    "internalType": "address",
                    "name": "sender",
                    "type": "address"
                }
            ],
            "name": "RoleGranted",
            "type": "event"
        },
        {
            "anonymous": false,
            "inputs": [
                {
                    "indexed": true,
                    "internalType": "bytes32",
                    "name": "role",
                    "type": "bytes32"
                },
                {
                    "indexed": true,
                    "internalType": "address",
                    "name": "account",
                    "type": "address"
                },
                {
                    "indexed": true,
                    "internalType": "address",
                    "name": "sender",
                    "type": "address"
                }
            ],
            "name": "RoleRevoked",
            "type": "event"
        },
        {
            "inputs": [],
            "name": "Admin",
            "outputs": [
                {
                    "internalType": "contract IAdmin",
                    "name": "",
                    "type": "address"
                }
            ],
            "stateMutability": "view",
            "type": "function"
        },
        {
            "inputs": [],
            "name": "DEFAULT_ADMIN_ROLE",
            "outputs": [
                {
                    "internalType": "bytes32",
                    "name": "",
                    "type": "bytes32"
                }
            ],
            "stateMutability": "view",
            "type": "function"
        },
        {
            "inputs": [],
            "name": "OPERATOR_ROLE",
            "outputs": [
                {
                    "internalType": "bytes32",
                    "name": "",
                    "type": "bytes32"
                }
            ],
            "stateMutability": "view",
            "type": "function"
        },
        {
            "inputs": [],
            "name": "currentTimestamp",
            "outputs": [
                {
                    "internalType": "uint256",
                    "name": "",
                    "type": "uint256"
                }
            ],
            "stateMutability": "view",
            "type": "function"
        },
        {
            "inputs": [],
            "name": "defenderRebalancer",
            "outputs": [],
            "stateMutability": "nonpayable",
            "type": "function"
        },
        {
            "inputs": [],
            "name": "epoch",
            "outputs": [
                {
                    "internalType": "uint256",
                    "name": "",
                    "type": "uint256"
                }
            ],
            "stateMutability": "view",
            "type": "function"
        },
        {
            "inputs": [],
            "name": "factory",
            "outputs": [
                {
                    "internalType": "contract IUniswapV2Factory",
                    "name": "",
                    "type": "address"
                }
            ],
            "stateMutability": "view",
            "type": "function"
        },
        {
            "inputs": [
                {
                    "internalType": "bytes32",
                    "name": "role",
                    "type": "bytes32"
                }
            ],
            "name": "getRoleAdmin",
            "outputs": [
                {
                    "internalType": "bytes32",
                    "name": "",
                    "type": "bytes32"
                }
            ],
            "stateMutability": "view",
            "type": "function"
        },
        {
            "inputs": [
                {
                    "internalType": "bytes32",
                    "name": "role",
                    "type": "bytes32"
                },
                {
                    "internalType": "address",
                    "name": "account",
                    "type": "address"
                }
            ],
            "name": "grantRole",
            "outputs": [],
            "stateMutability": "nonpayable",
            "type": "function"
        },
        {
            "inputs": [
                {
                    "internalType": "bytes32",
                    "name": "role",
                    "type": "bytes32"
                },
                {
                    "internalType": "address",
                    "name": "account",
                    "type": "address"
                }
            ],
            "name": "hasRole",
            "outputs": [
                {
                    "internalType": "bool",
                    "name": "",
                    "type": "bool"
                }
            ],
            "stateMutability": "view",
            "type": "function"
        },
        {
            "inputs": [],
            "name": "impactPercentageLimit",
            "outputs": [
                {
                    "internalType": "uint256",
                    "name": "",
                    "type": "uint256"
                }
            ],
            "stateMutability": "view",
            "type": "function"
        },
        {
            "inputs": [
                {
                    "internalType": "address",
                    "name": "_admin",
                    "type": "address"
                },
                {
                    "internalType": "contract IUniswapV2Router02",
                    "name": "_router",
                    "type": "address"
                },
                {
                    "internalType": "contract ILiquidityProvider",
                    "name": "_lProvider",
                    "type": "address"
                }
            ],
            "name": "initialize",
            "outputs": [],
            "stateMutability": "nonpayable",
            "type": "function"
        },
        {
            "inputs": [],
            "name": "isEnabled",
            "outputs": [
                {
                    "internalType": "bool",
                    "name": "",
                    "type": "bool"
                }
            ],
            "stateMutability": "view",
            "type": "function"
        },
        {
            "inputs": [],
            "name": "lProvider",
            "outputs": [
                {
                    "internalType": "contract ILiquidityProvider",
                    "name": "",
                    "type": "address"
                }
            ],
            "stateMutability": "view",
            "type": "function"
        },
        {
            "inputs": [],
            "name": "mode",
            "outputs": [
                {
                    "internalType": "uint256",
                    "name": "",
                    "type": "uint256"
                }
            ],
            "stateMutability": "view",
            "type": "function"
        },
        {
            "inputs": [],
            "name": "rebalance",
            "outputs": [
                {
                    "internalType": "bool",
                    "name": "",
                    "type": "bool"
                }
            ],
            "stateMutability": "nonpayable",
            "type": "function"
        },
        {
            "inputs": [],
            "name": "rebalancerState",
            "outputs": [
                {
                    "internalType": "bool",
                    "name": "",
                    "type": "bool"
                }
            ],
            "stateMutability": "nonpayable",
            "type": "function"
        },
        {
            "inputs": [
                {
                    "internalType": "bytes32",
                    "name": "role",
                    "type": "bytes32"
                },
                {
                    "internalType": "address",
                    "name": "account",
                    "type": "address"
                }
            ],
            "name": "renounceRole",
            "outputs": [],
            "stateMutability": "nonpayable",
            "type": "function"
        },
        {
            "inputs": [
                {
                    "internalType": "bytes32",
                    "name": "role",
                    "type": "bytes32"
                },
                {
                    "internalType": "address",
                    "name": "account",
                    "type": "address"
                }
            ],
            "name": "revokeRole",
            "outputs": [],
            "stateMutability": "nonpayable",
            "type": "function"
        },
        {
            "inputs": [],
            "name": "router",
            "outputs": [
                {
                    "internalType": "contract IUniswapV2Router02",
                    "name": "",
                    "type": "address"
                }
            ],
            "stateMutability": "view",
            "type": "function"
        },
        {
            "inputs": [
                {
                    "internalType": "uint256",
                    "name": "_impactPercentageLimit",
                    "type": "uint256"
                }
            ],
            "name": "setImpactPercentageLimit",
            "outputs": [],
            "stateMutability": "nonpayable",
            "type": "function"
        },
        {
            "inputs": [
                {
                    "internalType": "uint256",
                    "name": "_mode",
                    "type": "uint256"
                }
            ],
            "name": "setMode",
            "outputs": [],
            "stateMutability": "nonpayable",
            "type": "function"
        },
        {
            "inputs": [
                {
                    "internalType": "uint256",
                    "name": "x",
                    "type": "uint256"
                }
            ],
            "name": "sqrt",
            "outputs": [
                {
                    "internalType": "uint256",
                    "name": "y",
                    "type": "uint256"
                }
            ],
            "stateMutability": "pure",
            "type": "function"
        },
        {
            "inputs": [
                {
                    "internalType": "bytes4",
                    "name": "interfaceId",
                    "type": "bytes4"
                }
            ],
            "name": "supportsInterface",
            "outputs": [
                {
                    "internalType": "bool",
                    "name": "",
                    "type": "bool"
                }
            ],
            "stateMutability": "view",
            "type": "function"
        }
    ],
    "bytecode": "608060405234801561001057600080fd5b50600180556139a4806100246000396000f3fe608060405234801561001057600080fd5b50600436106101585760003560e01c8063900cf0cf116100c3578063ca2d8cb91161007c578063ca2d8cb9146102b1578063d547741f146102b9578063d72dd3b4146102cc578063f5b541a6146102df578063f887ea4014610306578063ff1b636d1461031957600080fd5b8063900cf0cf1461025457806391d148541461025d578063a217fddf14610270578063bd05983b14610278578063c0c53b8b1461028b578063c45a01551461029e57600080fd5b806336568abe1161011557806336568abe146101e55780635cc9c9ff146101f857806365d7c92d14610223578063677342ce1461022c5780636aa633b61461023f5780637d7c2a1c1461024c57600080fd5b806301ffc9a71461015d5780630fcc5b6e146101855780631e2ff94f1461018d578063248a9ca3146101a4578063295a5212146101c75780632f2ff15d146101d0575b600080fd5b61017061016b3660046134d6565b61032c565b60405190151581526020015b60405180910390f35b610170610363565b61019660035481565b60405190815260200161017c565b6101966101b2366004613500565b60009081526002602052604090206001015490565b61019660055481565b6101e36101de36600461352e565b610416565b005b6101e36101f336600461352e565b610441565b600b5461020b906001600160a01b031681565b6040516001600160a01b03909116815260200161017c565b61019660065481565b61019661023a366004613500565b6104bf565b6004546101709060ff1681565b610170610518565b61019660075481565b61017061026b36600461352e565b612ae3565b610196600081565b6101e3610286366004613500565b612b0e565b6101e361029936600461355e565b612ba2565b600a5461020b906001600160a01b031681565b6101e3612cac565b6101e36102c736600461352e565b612d4d565b6101e36102da366004613500565b612d73565b6101967f523a704056dcd17bcf83bed8b68c59416dac1119be77755efe3bde0a64e46e0c81565b60095461020b906001600160a01b031681565b60085461020b906001600160a01b031681565b60006001600160e01b03198216637965db0b60e01b148061035d57506301ffc9a760e01b6001600160e01b03198316145b92915050565b600854604051632474521560e21b8152600060048201819052336024830152916001600160a01b0316906391d1485490604401602060405180830381865afa1580156103b3573d6000803e3d6000fd5b505050506040513d601f19601f820116820180604052508101906103d791906135a9565b6103fc5760405162461bcd60e51b81526004016103f3906135cb565b60405180910390fd5b506004805460ff19811660ff918216159081179092551690565b6000828152600260205260409020600101546104328133612e07565b61043c8383612e6b565b505050565b6001600160a01b03811633146104b15760405162461bcd60e51b815260206004820152602f60248201527f416363657373436f6e74726f6c3a2063616e206f6e6c792072656e6f756e636560448201526e103937b632b9903337b91039b2b63360891b60648201526084016103f3565b6104bb8282612ef1565b5050565b60008060026104cf846001613628565b6104d9919061363b565b90508291505b81811015610512579050806002816104f7818661363b565b6105019190613628565b61050b919061363b565b90506104df565b50919050565b600854604051632474521560e21b81527f523a704056dcd17bcf83bed8b68c59416dac1119be77755efe3bde0a64e46e0c60048201523360248201526000916001600160a01b0316906391d1485490604401602060405180830381865afa158015610587573d6000803e3d6000fd5b505050506040513d601f19601f820116820180604052508101906105ab91906135a9565b806106245750600854604051632474521560e21b8152600060048201523360248201526001600160a01b03909116906391d1485490604401602060405180830381865afa158015610600573d6000803e3d6000fd5b505050506040513d601f19601f8201168201806040525081019061062491906135a9565b6106965760405162461bcd60e51b815260206004820152603860248201527f5553447942555344526562616c616e6365723a2063616c6c6572206973206e6560448201527f69746865722061646d696e206e6f72206f70657261746f72000000000000000060648201526084016103f3565b60045460ff166107015760405162461bcd60e51b815260206004820152603060248201527f5553447942555344526562616c616e6365723a20726562616c616e636572206860448201526f185cc81899595b88191a5cd8589b195960821b60648201526084016103f3565b60408051600280825260608201835260009260208301908036833750506008546040805163554691a560e01b815290519394506001600160a01b039091169263554691a5925060048083019260209291908290030181865afa15801561076b573d6000803e3d6000fd5b505050506040513d601f19601f8201168201806040525081019061078f9190613673565b816000815181106107a2576107a2613690565b6001600160a01b039283166020918202929092018101919091526008546040805163484f4ea960e01b81529051919093169263484f4ea99260048083019391928290030181865afa1580156107fb573d6000803e3d6000fd5b505050506040513d601f19601f8201168201806040525081019061081f9190613673565b8160018151811061083257610832613690565b6001600160a01b039283166020918202929092018101919091526009546040805163c45a015560e01b81529051600094929092169263c45a0155926004808401938290030181865afa15801561088c573d6000803e3d6000fd5b505050506040513d601f19601f820116820180604052508101906108b09190613673565b6001600160a01b031663e6a43905600860009054906101000a90046001600160a01b03166001600160a01b031663554691a56040518163ffffffff1660e01b8152600401602060405180830381865afa158015610911573d6000803e3d6000fd5b505050506040513d601f19601f820116820180604052508101906109359190613673565b600860009054906101000a90046001600160a01b03166001600160a01b031663484f4ea96040518163ffffffff1660e01b8152600401602060405180830381865afa158015610988573d6000803e3d6000fd5b505050506040513d601f19601f820116820180604052508101906109ac9190613673565b6040518363ffffffff1660e01b81526004016109c99291906136a6565b602060405180830381865afa1580156109e6573d6000803e3d6000fd5b505050506040513d601f19601f82011682018060405250810190610a0a9190613673565b90506000600860009054906101000a90046001600160a01b03166001600160a01b031663554691a56040518163ffffffff1660e01b8152600401602060405180830381865afa158015610a61573d6000803e3d6000fd5b505050506040513d601f19601f82011682018060405250810190610a859190613673565b6040516370a0823160e01b81526001600160a01b03848116600483015291909116906370a0823190602401602060405180830381865afa158015610acd573d6000803e3d6000fd5b505050506040513d601f19601f82011682018060405250810190610af191906136c0565b90506000600860009054906101000a90046001600160a01b03166001600160a01b031663484f4ea96040518163ffffffff1660e01b8152600401602060405180830381865afa158015610b48573d6000803e3d6000fd5b505050506040513d601f19601f82011682018060405250810190610b6c9190613673565b6040516370a0823160e01b81526001600160a01b03858116600483015291909116906370a0823190602401602060405180830381865afa158015610bb4573d6000803e3d6000fd5b505050506040513d601f19601f82011682018060405250810190610bd891906136c0565b90508082108015610bf7575060055460021480610bf757506005546003145b15611ad557600082610c1b6103e8610c11856103eb6136d9565b61023a919061363b565b610c24856104bf565b610c2e91906136d9565b610c3891906136f0565b90506000612710610c4b8361271f6136d9565b610c55919061363b565b9050600860009054906101000a90046001600160a01b03166001600160a01b031663554691a56040518163ffffffff1660e01b8152600401602060405180830381865afa158015610caa573d6000803e3d6000fd5b505050506040513d601f19601f82011682018060405250810190610cce9190613673565b6001600160a01b03166340c10f1930836040518363ffffffff1660e01b8152600401610cfb929190613703565b600060405180830381600087803b158015610d1557600080fd5b505af1158015610d29573d6000803e3d6000fd5b50506009546008546040805163554691a560e01b81529051610db895506001600160a01b03938416945086939092169163554691a5916004808201926020929091908290030181865afa158015610d84573d6000803e3d6000fd5b505050506040513d601f19601f82011682018060405250810190610da89190613673565b6001600160a01b03169190612f58565b6009546040516338ed173960e01b81526001600160a01b03909116906338ed173990610df59084906001908b9030906364e5a4bc9060040161371c565b6000604051808303816000875af1158015610e14573d6000803e3d6000fd5b505050506040513d6000823e601f3d908101601f19168201604052610e3c919081019061378d565b50600860009054906101000a90046001600160a01b03166001600160a01b031663554691a56040518163ffffffff1660e01b8152600401602060405180830381865afa158015610e90573d6000803e3d6000fd5b505050506040513d601f19601f82011682018060405250810190610eb49190613673565b6040516370a0823160e01b81523060048201526001600160a01b0391909116906370a0823190602401602060405180830381865afa158015610efa573d6000803e3d6000fd5b505050506040513d601f19601f82011682018060405250810190610f1e91906136c0565b9350600860009054906101000a90046001600160a01b03166001600160a01b031663484f4ea96040518163ffffffff1660e01b8152600401602060405180830381865afa158015610f73573d6000803e3d6000fd5b505050506040513d601f19601f82011682018060405250810190610f979190613673565b6040516370a0823160e01b81523060048201526001600160a01b0391909116906370a0823190602401602060405180830381865afa158015610fdd573d6000803e3d6000fd5b505050506040513d601f19601f8201168201806040525081019061100191906136c0565b9250600860009054906101000a90046001600160a01b03166001600160a01b031663554691a56040518163ffffffff1660e01b8152600401602060405180830381865afa158015611056573d6000803e3d6000fd5b505050506040513d601f19601f8201168201806040525081019061107a9190613673565b6001600160a01b03166340c10f1930856040518363ffffffff1660e01b81526004016110a7929190613703565b600060405180830381600087803b1580156110c157600080fd5b505af11580156110d5573d6000803e3d6000fd5b505050506000600860009054906101000a90046001600160a01b03166001600160a01b031663554691a56040518163ffffffff1660e01b8152600401602060405180830381865afa15801561112e573d6000803e3d6000fd5b505050506040513d601f19601f820116820180604052508101906111529190613673565b600b54604051636eb1769f60e11b81526001600160a01b039283169263dd62ed3e92611186923092909116906004016136a6565b602060405180830381865afa1580156111a3573d6000803e3d6000fd5b505050506040513d601f19601f820116820180604052508101906111c791906136c0565b111561139657600860009054906101000a90046001600160a01b03166001600160a01b031663554691a56040518163ffffffff1660e01b8152600401602060405180830381865afa158015611220573d6000803e3d6000fd5b505050506040513d601f19601f820116820180604052508101906112449190613673565b600b546008546040805163554691a560e01b815290516001600160a01b039485169463a457c2d794811693169163554691a59160048083019260209291908290030181865afa15801561129b573d6000803e3d6000fd5b505050506040513d601f19601f820116820180604052508101906112bf9190613673565b600b54604051636eb1769f60e11b81526001600160a01b039283169263dd62ed3e926112f3923092909116906004016136a6565b602060405180830381865afa158015611310573d6000803e3d6000fd5b505050506040513d601f19601f8201168201806040525081019061133491906136c0565b6040518363ffffffff1660e01b8152600401611351929190613703565b6020604051808303816000875af1158015611370573d6000803e3d6000fd5b505050506040513d601f19601f8201168201806040525081019061139491906135a9565b505b6008546040805163484f4ea960e01b815290516000926001600160a01b03169163484f4ea99160048083019260209291908290030181865afa1580156113e0573d6000803e3d6000fd5b505050506040513d601f19601f820116820180604052508101906114049190613673565b600b54604051636eb1769f60e11b81526001600160a01b039283169263dd62ed3e92611438923092909116906004016136a6565b602060405180830381865afa158015611455573d6000803e3d6000fd5b505050506040513d601f19601f8201168201806040525081019061147991906136c0565b111561164857600860009054906101000a90046001600160a01b03166001600160a01b031663484f4ea96040518163ffffffff1660e01b8152600401602060405180830381865afa1580156114d2573d6000803e3d6000fd5b505050506040513d601f19601f820116820180604052508101906114f69190613673565b600b546008546040805163484f4ea960e01b815290516001600160a01b039485169463a457c2d794811693169163484f4ea99160048083019260209291908290030181865afa15801561154d573d6000803e3d6000fd5b505050506040513d601f19601f820116820180604052508101906115719190613673565b600b54604051636eb1769f60e11b81526001600160a01b039283169263dd62ed3e926115a5923092909116906004016136a6565b602060405180830381865afa1580156115c2573d6000803e3d6000fd5b505050506040513d601f19601f820116820180604052508101906115e691906136c0565b6040518363ffffffff1660e01b8152600401611603929190613703565b6020604051808303816000875af1158015611622573d6000803e3d6000fd5b505050506040513d601f19601f8201168201806040525081019061164691906135a9565b505b600b546116bd906001600160a01b031661166a85670de0b6b3a76400006136d9565b600860009054906101000a90046001600160a01b03166001600160a01b031663554691a56040518163ffffffff1660e01b8152600401602060405180830381865afa158015610d84573d6000803e3d6000fd5b600b54611732906001600160a01b03166116df85670de0b6b3a76400006136d9565b600860009054906101000a90046001600160a01b03166001600160a01b031663484f4ea96040518163ffffffff1660e01b8152600401602060405180830381865afa158015610d84573d6000803e3d6000fd5b600b546008546040805163554691a560e01b815290516001600160a01b039384169363ca3d653993169163554691a59160048083019260209291908290030181865afa158015611786573d6000803e3d6000fd5b505050506040513d601f19601f820116820180604052508101906117aa9190613673565b600860009054906101000a90046001600160a01b03166001600160a01b031663484f4ea96040518163ffffffff1660e01b8152600401602060405180830381865afa1580156117fd573d6000803e3d6000fd5b505050506040513d601f19601f820116820180604052508101906118219190613673565b8687600180600860009054906101000a90046001600160a01b03166001600160a01b031663563df32f6040518163ffffffff1660e01b8152600401602060405180830381865afa158015611879573d6000803e3d6000fd5b505050506040513d601f19601f8201168201806040525081019061189d9190613673565b60405160e089901b6001600160e01b03191681526001600160a01b039788166004820152958716602487015260448601949094526064850192909252608484015260a483015290911660c482015260e401600060405180830381600087803b15801561190857600080fd5b505af115801561191c573d6000803e3d6000fd5b50505050600860009054906101000a90046001600160a01b03166001600160a01b031663554691a56040518163ffffffff1660e01b8152600401602060405180830381865afa158015611973573d6000803e3d6000fd5b505050506040513d601f19601f820116820180604052508101906119979190613673565b600b546008546040805163554691a560e01b815290516001600160a01b0394851694639dc29fac94811693169163554691a59160048083019260209291908290030181865afa1580156119ee573d6000803e3d6000fd5b505050506040513d601f19601f82011682018060405250810190611a129190613673565b600b546040516370a0823160e01b81526001600160a01b0391821660048201529116906370a0823190602401602060405180830381865afa158015611a5b573d6000803e3d6000fd5b505050506040513d601f19601f82011682018060405250810190611a7f91906136c0565b6040518363ffffffff1660e01b8152600401611a9c929190613703565b600060405180830381600087803b158015611ab657600080fd5b505af1158015611aca573d6000803e3d6000fd5b505050505050612a5e565b8082118015611af2575060055460011480611af257506005546003145b15612a5e57600081611b0c6103e8610c11866103eb6136d9565b611b15846104bf565b611b1f91906136d9565b611b2991906136f0565b90506000611b37838561363b565b9050611b42816104bf565b611b4c90836136d9565b91506000612710611b5f8461271f6136d9565b611b69919061363b565b9050611b758186613092565b15612a4c576009546040805163c45a015560e01b815290516000926001600160a01b03169163c45a01559160048083019260209291908290030181865afa158015611bc4573d6000803e3d6000fd5b505050506040513d601f19601f82011682018060405250810190611be89190613673565b6001600160a01b031663e6a43905600860009054906101000a90046001600160a01b03166001600160a01b031663554691a56040518163ffffffff1660e01b8152600401602060405180830381865afa158015611c49573d6000803e3d6000fd5b505050506040513d601f19601f82011682018060405250810190611c6d9190613673565b600860009054906101000a90046001600160a01b03166001600160a01b031663484f4ea96040518163ffffffff1660e01b8152600401602060405180830381865afa158015611cc0573d6000803e3d6000fd5b505050506040513d601f19601f82011682018060405250810190611ce49190613673565b6040518363ffffffff1660e01b8152600401611d019291906136a6565b602060405180830381865afa158015611d1e573d6000803e3d6000fd5b505050506040513d601f19601f82011682018060405250810190611d429190613673565b90506000816001600160a01b03166370a08231600860009054906101000a90046001600160a01b03166001600160a01b031663563df32f6040518163ffffffff1660e01b8152600401602060405180830381865afa158015611da8573d6000803e3d6000fd5b505050506040513d601f19601f82011682018060405250810190611dcc9190613673565b6040516001600160e01b031960e084901b1681526001600160a01b039091166004820152602401602060405180830381865afa158015611e10573d6000803e3d6000fd5b505050506040513d601f19601f82011682018060405250810190611e3491906136c0565b9050600860009054906101000a90046001600160a01b03166001600160a01b031663563df32f6040518163ffffffff1660e01b8152600401602060405180830381865afa158015611e89573d6000803e3d6000fd5b505050506040513d601f19601f82011682018060405250810190611ead9190613673565b60405163346138c960e11b81523060048201526001600160a01b0384811660248301526044820186905291909116906368c2719290606401600060405180830381600087803b158015611eff57600080fd5b505af1158015611f13573d6000803e3d6000fd5b5050600b5460405163095ea7b360e01b81526001600160a01b03808716945063095ea7b39350611f499216908590600401613703565b6020604051808303816000875af1158015611f68573d6000803e3d6000fd5b505050506040513d601f19601f82011682018060405250810190611f8c91906135a9565b50600b54604051635100e67b60e11b81526001600160a01b039091169063a201ccf690611fbf9085908790600401613703565b60408051808303816000875af1158015611fdd573d6000803e3d6000fd5b505050506040513d601f19601f82011682018060405250810190612001919061384b565b50506008546040805163554691a560e01b815290516000926001600160a01b03169163554691a59160048083019260209291908290030181865afa15801561204d573d6000803e3d6000fd5b505050506040513d601f19601f820116820180604052508101906120719190613673565b6040516370a0823160e01b81523060048201526001600160a01b0391909116906370a0823190602401602060405180830381865afa1580156120b7573d6000803e3d6000fd5b505050506040513d601f19601f820116820180604052508101906120db91906136c0565b90506000600860009054906101000a90046001600160a01b03166001600160a01b031663484f4ea96040518163ffffffff1660e01b8152600401602060405180830381865afa158015612132573d6000803e3d6000fd5b505050506040513d601f19601f820116820180604052508101906121569190613673565b6040516370a0823160e01b81523060048201526001600160a01b0391909116906370a0823190602401602060405180830381865afa15801561219c573d6000803e3d6000fd5b505050506040513d601f19601f820116820180604052508101906121c091906136c0565b9050600860009054906101000a90046001600160a01b03166001600160a01b031663484f4ea96040518163ffffffff1660e01b8152600401602060405180830381865afa158015612215573d6000803e3d6000fd5b505050506040513d601f19601f820116820180604052508101906122399190613673565b8b60008151811061224c5761224c613690565b6001600160a01b039283166020918202929092018101919091526008546040805163554691a560e01b81529051919093169263554691a59260048083019391928290030181865afa1580156122a5573d6000803e3d6000fd5b505050506040513d601f19601f820116820180604052508101906122c99190613673565b8b6001815181106122dc576122dc613690565b6001600160a01b039283166020918202929092018101919091526008546040805163484f4ea960e01b81529051600094929092169263484f4ea9926004808401938290030181865afa158015612336573d6000803e3d6000fd5b505050506040513d601f19601f8201168201806040525081019061235a9190613673565b600954604051636eb1769f60e11b81526001600160a01b039283169263dd62ed3e9261238e923092909116906004016136a6565b602060405180830381865afa1580156123ab573d6000803e3d6000fd5b505050506040513d601f19601f820116820180604052508101906123cf91906136c0565b111561259e57600860009054906101000a90046001600160a01b03166001600160a01b031663484f4ea96040518163ffffffff1660e01b8152600401602060405180830381865afa158015612428573d6000803e3d6000fd5b505050506040513d601f19601f8201168201806040525081019061244c9190613673565b6009546008546040805163484f4ea960e01b815290516001600160a01b039485169463a457c2d794811693169163484f4ea99160048083019260209291908290030181865afa1580156124a3573d6000803e3d6000fd5b505050506040513d601f19601f820116820180604052508101906124c79190613673565b600954604051636eb1769f60e11b81526001600160a01b039283169263dd62ed3e926124fb923092909116906004016136a6565b602060405180830381865afa158015612518573d6000803e3d6000fd5b505050506040513d601f19601f8201168201806040525081019061253c91906136c0565b6040518363ffffffff1660e01b8152600401612559929190613703565b6020604051808303816000875af1158015612578573d6000803e3d6000fd5b505050506040513d601f19601f8201168201806040525081019061259c91906135a9565b505b6009546008546040805163484f4ea960e01b815290516125f4936001600160a01b0390811693869391169163484f4ea9916004808201926020929091908290030181865afa158015610d84573d6000803e3d6000fd5b6000600960009054906101000a90046001600160a01b03166001600160a01b03166338ed17398360018f306364e5a4bc6040518663ffffffff1660e01b815260040161264495949392919061371c565b6000604051808303816000875af1158015612663573d6000803e3d6000fd5b505050506040513d6000823e601f3d908101601f1916820160405261268b919081019061378d565b90506000816001815181106126a2576126a2613690565b6020026020010151846126b59190613628565b9050600860009054906101000a90046001600160a01b03166001600160a01b031663554691a56040518163ffffffff1660e01b8152600401602060405180830381865afa15801561270a573d6000803e3d6000fd5b505050506040513d601f19601f8201168201806040525081019061272e9190613673565b6001600160a01b0316639dc29fac30836040518363ffffffff1660e01b815260040161275b929190613703565b600060405180830381600087803b15801561277557600080fd5b505af1158015612789573d6000803e3d6000fd5b505050506000600860009054906101000a90046001600160a01b03166001600160a01b031663484f4ea96040518163ffffffff1660e01b8152600401602060405180830381865afa1580156127e2573d6000803e3d6000fd5b505050506040513d601f19601f820116820180604052508101906128069190613673565b6040516370a0823160e01b81523060048201526001600160a01b0391909116906370a0823190602401602060405180830381865afa15801561284c573d6000803e3d6000fd5b505050506040513d601f19601f8201168201806040525081019061287091906136c0565b90508015612a40576008546040805163563df32f60e01b81529051612964926001600160a01b03169163563df32f9160048083019260209291908290030181865afa1580156128c3573d6000803e3d6000fd5b505050506040513d601f19601f820116820180604052508101906128e79190613673565b6008546040805163484f4ea960e01b8152905185926001600160a01b03169163484f4ea99160048083019260209291908290030181865afa158015612930573d6000803e3d6000fd5b505050506040513d601f19601f820116820180604052508101906129549190613673565b6001600160a01b031691906130ca565b600860009054906101000a90046001600160a01b03166001600160a01b031663bf10545b6040518163ffffffff1660e01b8152600401602060405180830381865afa1580156129b7573d6000803e3d6000fd5b505050506040513d601f19601f820116820180604052508101906129db9190613673565b6001600160a01b031663f4c7d3136040518163ffffffff1660e01b81526004016020604051808303816000875af1158015612a1a573d6000803e3d6000fd5b505050506040513d601f19601f82011682018060405250810190612a3e91906136c0565b505b50505050505050612a5a565b600097505050505050505090565b5050505b600860009054906101000a90046001600160a01b03166001600160a01b03166306a4c9836040518163ffffffff1660e01b8152600401602060405180830381865afa158015612ab1573d6000803e3d6000fd5b505050506040513d601f19601f82011682018060405250810190612ad591906136c0565b600755506001935050505090565b60009182526002602090815260408084206001600160a01b0393909316845291905290205460ff1690565b600854604051632474521560e21b8152600060048201523360248201526001600160a01b03909116906391d1485490604401602060405180830381865afa158015612b5d573d6000803e3d6000fd5b505050506040513d601f19601f82011682018060405250810190612b8191906135a9565b612b9d5760405162461bcd60e51b81526004016103f3906135cb565b600655565b600054610100900460ff1680612bbb575060005460ff16155b612c1e5760405162461bcd60e51b815260206004820152602e60248201527f496e697469616c697a61626c653a20636f6e747261637420697320616c72656160448201526d191e481a5b9a5d1a585b1a5e995960921b60648201526084016103f3565b600054610100900460ff16158015612c40576000805461ffff19166101011790555b600880546001600160a01b038087166001600160a01b03199283161790925560098054868416908316179055600b8054928516929091169190911790556004805460ff191660011790556003600555600a6006558015612ca6576000805461ff00191690555b50505050565b600860009054906101000a90046001600160a01b03166001600160a01b0316634ff0876a6040518163ffffffff1660e01b8152600401602060405180830381865afa158015612cff573d6000803e3d6000fd5b505050506040513d601f19601f82011682018060405250810190612d2391906136c0565b612d2e9060156136d9565b600754612d3b9190613628565b4210612d4b57612d49610518565b505b565b600082815260026020526040902060010154612d698133612e07565b61043c8383612ef1565b600854604051632474521560e21b8152600060048201523360248201526001600160a01b03909116906391d1485490604401602060405180830381865afa158015612dc2573d6000803e3d6000fd5b505050506040513d601f19601f82011682018060405250810190612de691906135a9565b612e025760405162461bcd60e51b81526004016103f3906135cb565b600555565b612e118282612ae3565b6104bb57612e29816001600160a01b031660146130e9565b612e348360206130e9565b604051602001612e45929190613893565b60408051601f198184030181529082905262461bcd60e51b82526103f391600401613908565b612e758282612ae3565b6104bb5760008281526002602090815260408083206001600160a01b03851684529091529020805460ff19166001179055612ead3390565b6001600160a01b0316816001600160a01b0316837f2f8788117e7eff1d82e926ec794901d17c78024a50270940304540a733656f0d60405160405180910390a45050565b612efb8282612ae3565b156104bb5760008281526002602090815260408083206001600160a01b0385168085529252808320805460ff1916905551339285917ff6391f5c32d9c69d2a47ea670b442974b53935d1edc7fd64eb21e047a839171b9190a45050565b801580612fd15750604051636eb1769f60e11b81526001600160a01b0384169063dd62ed3e90612f8e90309086906004016136a6565b602060405180830381865afa158015612fab573d6000803e3d6000fd5b505050506040513d601f19601f82011682018060405250810190612fcf91906136c0565b155b61303c5760405162461bcd60e51b815260206004820152603660248201527f5361666545524332303a20617070726f76652066726f6d206e6f6e2d7a65726f60448201527520746f206e6f6e2d7a65726f20616c6c6f77616e636560501b60648201526084016103f3565b61043c8363095ea7b360e01b848460405160240161305b929190613703565b60408051601f198184030181529190526020810180516001600160e01b03166001600160e01b03199093169290921790915261328c565b600080826130a18560646136d9565b6130ab919061363b565b905060065481116130c057600191505061035d565b600091505061035d565b61043c8363a9059cbb60e01b848460405160240161305b929190613703565b606060006130f88360026136d9565b613103906002613628565b67ffffffffffffffff81111561311b5761311b61365d565b6040519080825280601f01601f191660200182016040528015613145576020820181803683370190505b509050600360fc1b8160008151811061316057613160613690565b60200101906001600160f81b031916908160001a905350600f60fb1b8160018151811061318f5761318f613690565b60200101906001600160f81b031916908160001a90535060006131b38460026136d9565b6131be906001613628565b90505b6001811115613236576f181899199a1a9b1b9c1cb0b131b232b360811b85600f16601081106131f2576131f2613690565b1a60f81b82828151811061320857613208613690565b60200101906001600160f81b031916908160001a90535060049490941c9361322f8161393b565b90506131c1565b5083156132855760405162461bcd60e51b815260206004820181905260248201527f537472696e67733a20686578206c656e67746820696e73756666696369656e7460448201526064016103f3565b9392505050565b60006132e1826040518060400160405280602081526020017f5361666545524332303a206c6f772d6c6576656c2063616c6c206661696c6564815250856001600160a01b031661335e9092919063ffffffff16565b80519091501561043c57808060200190518101906132ff91906135a9565b61043c5760405162461bcd60e51b815260206004820152602a60248201527f5361666545524332303a204552433230206f7065726174696f6e20646964206e6044820152691bdd081cdd58d8d9595960b21b60648201526084016103f3565b606061336d8484600085613375565b949350505050565b6060824710156133d65760405162461bcd60e51b815260206004820152602660248201527f416464726573733a20696e73756666696369656e742062616c616e636520666f6044820152651c8818d85b1b60d21b60648201526084016103f3565b843b6134245760405162461bcd60e51b815260206004820152601d60248201527f416464726573733a2063616c6c20746f206e6f6e2d636f6e747261637400000060448201526064016103f3565b600080866001600160a01b031685876040516134409190613952565b60006040518083038185875af1925050503d806000811461347d576040519150601f19603f3d011682016040523d82523d6000602084013e613482565b606091505b509150915061349282828661349d565b979650505050505050565b606083156134ac575081613285565b8251156134bc5782518084602001fd5b8160405162461bcd60e51b81526004016103f39190613908565b6000602082840312156134e857600080fd5b81356001600160e01b03198116811461328557600080fd5b60006020828403121561351257600080fd5b5035919050565b6001600160a01b0381168114612d4957600080fd5b6000806040838503121561354157600080fd5b82359150602083013561355381613519565b809150509250929050565b60008060006060848603121561357357600080fd5b833561357e81613519565b9250602084013561358e81613519565b9150604084013561359e81613519565b809150509250925092565b6000602082840312156135bb57600080fd5b8151801515811461328557600080fd5b60208082526027908201527f5553447942555344526562616c616e6365723a2063616c6c6572206973206e6f6040820152663a1030b236b4b760c91b606082015260800190565b634e487b7160e01b600052601160045260246000fd5b8082018082111561035d5761035d613612565b60008261365857634e487b7160e01b600052601260045260246000fd5b500490565b634e487b7160e01b600052604160045260246000fd5b60006020828403121561368557600080fd5b815161328581613519565b634e487b7160e01b600052603260045260246000fd5b6001600160a01b0392831681529116602082015260400190565b6000602082840312156136d257600080fd5b5051919050565b808202811582820484141761035d5761035d613612565b8181038181111561035d5761035d613612565b6001600160a01b03929092168252602082015260400190565b600060a082018783526020878185015260a0604085015281875180845260c086019150828901935060005b8181101561376c5784516001600160a01b031683529383019391830191600101613747565b50506001600160a01b03969096166060850152505050608001529392505050565b600060208083850312156137a057600080fd5b825167ffffffffffffffff808211156137b857600080fd5b818501915085601f8301126137cc57600080fd5b8151818111156137de576137de61365d565b8060051b604051601f19603f830116810181811085821117156138035761380361365d565b60405291825284820192508381018501918883111561382157600080fd5b938501935b8285101561383f57845184529385019392850192613826565b98975050505050505050565b6000806040838503121561385e57600080fd5b505080516020909101519092909150565b60005b8381101561388a578181015183820152602001613872565b50506000910152565b7f416363657373436f6e74726f6c3a206163636f756e74200000000000000000008152600083516138cb81601785016020880161386f565b7001034b99036b4b9b9b4b733903937b6329607d1b60179184019182015283516138fc81602884016020880161386f565b01602801949350505050565b602081526000825180602084015261392781604085016020870161386f565b601f01601f19169190910160400192915050565b60008161394a5761394a613612565b506000190190565b6000825161396481846020870161386f565b919091019291505056fea26469706673582212202ffcaab8d939e36360d768a387e7d4764636e2029284ba49cb5c762e2bc80c1a64736f6c63430008110033",
    "sourcePath": "/home/user/ysl/contracts/ReBalancers/USDyRebalancer.sol",
    "compiler": {
        "name": "solc",
        "version": "0.8.17+commit.8df45f5f"
    },
    "functionHashes": {
        "Admin()": "ff1b636d",
        "DEFAULT_ADMIN_ROLE()": "a217fddf",
        "OPERATOR_ROLE()": "f5b541a6",
        "currentTimestamp()": "1e2ff94f",
        "defenderRebalancer()": "ca2d8cb9",
        "epoch()": "900cf0cf",
        "factory()": "c45a0155",
        "getRoleAdmin(bytes32)": "248a9ca3",
        "grantRole(bytes32,address)": "2f2ff15d",
        "hasRole(bytes32,address)": "91d14854",
        "impactPercentageLimit()": "65d7c92d",
        "initialize(address,address,address)": "c0c53b8b",
        "isEnabled()": "6aa633b6",
        "lProvider()": "5cc9c9ff",
        "mode()": "295a5212",
        "rebalance()": "7d7c2a1c",
        "rebalancerState()": "0fcc5b6e",
        "renounceRole(bytes32,address)": "36568abe",
        "revokeRole(bytes32,address)": "d547741f",
        "router()": "f887ea40",
        "setImpactPercentageLimit(uint256)": "bd05983b",
        "setMode(uint256)": "d72dd3b4",
        "sqrt(uint256)": "677342ce",
        "supportsInterface(bytes4)": "01ffc9a7"
    },
    "gasEstimates": {
        "creation": {
            "codeDepositCost": "2951200",
            "executionCost": "25345",
            "totalCost": "2976545"
        },
        "external": {
            "Admin()": "2469",
            "DEFAULT_ADMIN_ROLE()": "262",
            "OPERATOR_ROLE()": "283",
            "currentTimestamp()": "2363",
            "defenderRebalancer()": "infinite",
            "epoch()": "2318",
            "factory()": "2470",
            "getRoleAdmin(bytes32)": "2534",
            "grantRole(bytes32,address)": "infinite",
            "hasRole(bytes32,address)": "2699",
            "impactPercentageLimit()": "2362",
            "initialize(address,address,address)": "infinite",
            "isEnabled()": "2410",
            "lProvider()": "2382",
            "mode()": "2407",
            "rebalance()": "infinite",
            "rebalancerState()": "infinite",
            "renounceRole(bytes32,address)": "29024",
            "revokeRole(bytes32,address)": "infinite",
            "router()": "2447",
            "setImpactPercentageLimit(uint256)": "infinite",
            "setMode(uint256)": "infinite",
            "sqrt(uint256)": "infinite",
            "supportsInterface(bytes4)": "450"
        },
        "internal": {
            "checkLiquidityImpact(uint256,uint256)": "infinite"
        }
    }
}